(window.webpackJsonp=window.webpackJsonp||[]).push([[42],{245:function(A,t){A.exports="data:image/png;base64,iVBORw0KGgoAAAANSUhEUgAABDgAAAJfCAYAAACaMWZXAAAACXBIWXMAAAsTAAALEwEAmpwYAAAAAXNSR0IArs4c6QAAAARnQU1BAACxjwv8YQUAACQnSURBVHgB7d1PjF3VnSfwc6tqIhE0wlHj3cguZLMA4rQj96oTM2aFJ0orxr1KY4S9gXRYUMaZJsELjBSgUce4WEASNhhhOrNyaA1p7BUFzmTV7nHinjhSsLCt2ZlWzEQGKV1Vd+7vvrrlV69euf69+nP8Ph+p/Kree/e/dc9533f+pAQAAAAAAAAAAAAAAAAAAAAAAAAAAAAAAAAAAAAAAAAAAAAAAAAAAAAAAAAAAAAAAAAAAAAAAAAAAAAAAAAAAAAAAAAAAAAAAAAAAAAAAAAAAAAAAAAAAAAAAAAAAAAAAAAAAAAAAAAAAAAAAAAAAAAAAAAAAAAAAAAAAAAAAAAAAAAAAAAAAAAAAAAAAAAAAAAAAAAAAAAAAAAAAAAAAAAAAAAAAAAAAAAAAAAAAAAAAAAAAAAAAAAAAAAAAAAAAAAAAAAAAAAAAAAAAAAAAAAAAAAAAAAAAAAAAAAAAAAAAAAAAAAAAAAAAAAAAAAAAAAAAAAAAAAAAAAAAAAAAAAAAAAAAAAAAAAAAAAAAAAAAAAAAAAAAAAAAAAAAAAAAAAAAAAAAAAAAAAAAAAAAAAAAAAAAAAAAAAAAAAAAAAAAAAAAAAAAAAAAAAAAAAAAAAAAAAAAAAAAAAAAAAAAAAAAAAAAAAAAAAAAAAAAAAAAAAAAAAAAAAAAAAAAAAAAAAAAAAAAAAAAAAAAAAAAAAAAAAAAAAAAAAAAAAAAAAAAAAAAAAAAAAAAAAAAAAAAAAAAAAAAAAAAAAAAAAAAAAAAAAAAAAAAAAAAAAAAAAAAAAAAAAAAAAAAAAAAAAAAAAAAAAAAAAAAAAAAAAAAAAAAAAAAAAAAAAAAAAAAAAAAAAAAAAAAAAAAAAAAAAAAAAAAAAAAAAAAAAAAAAAAAAAAAAAAAAAAAAAAAAAAAAAAAAAAAAAAAAAAAAAAAAAAAAAAAAAAAAAAAAAAAAAAAAAAAAAAAAAAAAAAAAAAAAAAAAAAAAAAAAAAAAAAAAAAAAAAAAAAAAAAAAAAAAAAAAAAAAAAAAAAAAAAAAAAAAAAAAAAAAAAAAAAAAAAAAAAAAAAAAAAAAAAAAAAAAAAAAAAAAAAAAAAAAAAAAAAAAAAAAAAAAAAAAAAAAAAAAAAAAAAAAAAAAAAAAAAAAAAAAAAAAAAAAAAAAAAAAAAAAAAAAAAAAAAAAAAAAAAAAAAAAAAAAAAAAAAAAAAAAAAAAAAACw/hWpz/3d3/3h0aKYHK1+3ZAA+sOlgYGBIy+++KU3E8AtSP0O6EPqd5WB1Oeqwu9IUvgB/WV4crKu+APcktTvgD6kflcZSgzHP9u2fSEB9IPz5/8UDyr+wK1sOP5RvwP6hfpdS9+34AAAAADyJ+AAAAAAsifgAAAAALIn4AAAAACyJ+AAAAAAsifgAAAAALIn4AAAAACyJ+AAAAAAsifgAAAAALIn4AAAAACyJ+AAAAAAsifgAAAAALIn4AAAAACyJ+AAAAAAsifgAAAAALIn4AAAAACyJ+AAAAAAsifgAAAAALIn4AAAAACyJ+AAAAAAsifgAAAAALIn4AAAAACyJ+AAAAAAsifgAAAAALIn4AAAAACyJ+AAAAAAsifgAAAAALIn4AAAAACyJ+AAAAAAsifgAAAAALIn4AAAAACyJ+AAAAAAsifgAAAAALIn4AAAAACyJ+AAAAAAsifgAAAAALIn4AAAAACyJ+AAAAAAsifgAAAAALIn4AAAAACyJ+AAAAAAsifgAAAAALIn4AAAAACyJ+AAAAAAsifgAAAAALIn4AAAAACyJ+AAAAAAsifgAABoU44Mb0gAQHYEHAAAqQ42hstDWz5Og0N/KJ/a+mwCALIi4AAACIOD21Mqhuvfi3QkAQBZEXAAwCLU3/JXP4l1aVnXZ2JiLJXlpak1vZIAgKwIOABgMQaH3qh+Pi5Htu5KrD+Dg+/X1+fQXZvTIhWjl64VL1+8K02M31UcvTiSAICsCDgAANpUQcelBABkR8ABAAAAZG8oAQBzqqcMHfhPx248MzkcI1CmwfRs+dTdj85482T5ZjH60diM5Q9tfX/mCtO54uWPDpYjd29Pg2Wsd3v1MzUtaflQcfTiO7P3YcueNFhU2yq3t54pLqWy2tbLF4+nrvs8te4yfVBt60i1n/tTUT46ta1wLk2MH7hZS4XWcQ89WS23v9rehunlbrLdtmWHq2Ufrb5G2VO9f0MqimupLKpt/sdz87WOqPd9qNrXstwzNeDntepnLE2kVzrP7fT7B9KTbc9M7evgaHXc12a8eXL29qv3vFEd43CateL5j7O1/eY8pV3VX8OtZ+e5Pt/buqu6Ns8276lnbKnPVaqWL6t9HhhbyLkCAGYScADAzW1ofchvFM0vu6rnZ75zoPxg9uLTH3o3tNY1FQAMlu+n6WCjeWvH3/HUoS1vVMvun/rz0o1tF7uqD8pPFj/66KuzNjlUfcgv4wN3cal6T3yQPpLqoCA+PBfD9fKtcUQe6B4axP4Nxv5V7y0iJDg3Y7tPbd1cBSfPpS6mwpXWsZV1OHFt6oN79fzQ/up4uoY4U8caIc5o6zzEdmPAz/q8VQFP2lNt98is7baOdX+X1e2ZdX3S0JvpxjlsqcON9oBj6jqlosu17DzW9vNUuzT1OH190vj4AzG2x4wFJ4vharu7Yhut61vtf+tcpdb1qf6/DQ7tqdb/VSEHACycgAMAbmLqA+Z0qjHVImNXmkhdw4FZyx+9eFe9XOtb+1ZrjsGhY1XoEGHDc2lyvPVhf2hoOA0MzPggXLe8iA+7MbPH4MBDxT98VAcNrRYS8cG62F596B+pPvSPdt34QBUqTFYfpAeKB6ogZGx62cGhn6dozTGYnk3ROqLT4OCz9QftMj0XLUCm96fZblEcqcKRD7oe/+Dkz+uQoFq2OrbR5sN9dfxH6lYLqYgP9F1aqcTMJ0Ucx4Z6BpOJiSPTy7ZaoByLqVs7tzt1XG3XZ8vHrZBgYrg4+vHlNI/i6EcPzNiPKkSp1vZsWojWeRxOrRYx00FG+/WpB6VN6aHuG4+WKik6DM+8Pq1zHOFJDHRqsFMAWCBjcADAairLKjiI4GHigQgmIkCpf6oPuMU//P5cx5uroKA43go3brzWCl0GmpYMu+beVmpt50dtgUAsOzHefODeVXex6FQUra4sk8WMIKJedqA4UIcXXb4iqT+clwNj1evR0uJIe8uFah+OtFpkpA11K49OA0N7UqvVxz/FDCYzln3598er0KE1betgdF1Ze3VgFSFRhE8TM1tp1OepOu+p1b1mT9dz3HrncNfrE+e4NvCtBAAsmBYcALCa4pv5sjywkK4Hc7bMCAPVB+v49r9Id8y9hnSu23biufLQlkv1B+zBIpaf2YWi6S4xUMYH7Bmhy9SH8bHUbX9b2zqQ5lTE68M3xslofym1PswX5fGui46Pj6ahobE0PrOVy5qZjG4o1WMxMFaMXpy1T61zvHUsRVeZgcEIZY7PWkeEOd3+H4yPn0uDUUXrMjYIADAnAQcArK5rCxm8sl3dAmBwcFcqB5rBSCMk2dzWM2PObaWlKIs36zEiokvIobprzQfVB/qx6pP3uVnjScy5z/Xgn1MtNcqpcS3iA/s8+zxRdF3/1HbH0nrRGjw1Hn8993vSr6vD3dM2SGuH4g9dn62OtTrvCQBYHAEHAKyucwt941SwcWx6kNEZg2bOG24sWXQJKZ+6u/pt8tkYLLOeIaQer2MoxiB5J02MH5yrBUp5aEu0VjjWvfXBAvZ5cOLjlIOB6ZlvFhL4bEgAwIozBgcArFf1AJV1uDEWU8hWwcJdUz9fqrKCB9IKipCjePlita3iq6lMB1MMDFrWY2jsqfbrf5f/ffY4Gq2xNYrWIKNFeq5edmqfi6MfFWkhLTAmhr6UAACWQAsOAFiHWrOKVGFCFSpUQcOsMKP83up0YShG68FN46ceD6Q8tPXn9X5NpCdT53gbg5NP1q00yvJgcXRx3XBS051mcHI4LaKVy5opi0utMTjS9jnfU6Q/n3rzpQQArDgtOABgKQbLle12ENPGhqL7mBRpshhOKyC6xZQjW3fFzxzveLN+KLp2QWk9V8w19sdNBs2cLJspXXd1XfKpu/dX4UpZPrX1nbQeDDStUYo/n/tN5dRsNAPrP7ABgFuAgAMAFmOyGVSyeDStpJhJo2X7VGuOaXVXkGLy2bRSBtP78dOtG0plaurSekaUmabPzezpTatg4th0ANJ1m82UtMWTndutj3/6eMt5Ao6p/SoGR9JKiuvT6rKzqzq2Wdei/F48VwzXLXBGfy/gAIBVoIsKACxGOXC8+ie6Z+wpD235uP5AXXdXiNYJ5SvF0YszPoDXH3SjtUU53eJje/nU3W/ceMfkB91mVZmaSSPW1Rrz4tDdMQbG5VSk/1qtdVf1/CvVz5Opx+rtfm/rc6lM1X6Xsd3j9XbrF2PbaVf9wX5y/LlZC0+fm3J/tY7taTL9U/VVyh3VuvZXy1yrVtA6nm7b/dFHYzO3u3Ws2t656txtqM5tLBPnb2z+GWjK6rwUMfPLSGvA06IKIopr9fWZKA52hg3Ve0ar/b4x1e5Aub2efncgfau6TptvvHPmdZo6Tweq977fmm1my/5UTIU09fHW+3stTU6s6FgpAMANAg4AWIT4gFyODN81NQDoruqp4enZTcr05qwFyioQKOpAohEf2PffeL1uTHm868Ymxg+kwcFPW61FqmVak5BUH9bTwTQ+8U61Dz0POEIVNhypPtxfas2ikvZ3TH4yVn1oP9BtFpX63Bza8lB1zNFaY3s9PkV5Y5nqWI7cbCaVmdutQ4pdU+f2Wj1o6fj4aJpv36uAqVrHgWq5R2ddn9S1W9G3ZnS3mX5rte9FeaMlSZfrVIcy7f8XqlCl7eWxuH5zzTYDAPTeys0xl4mnn/73uiqzbdsXEkA/OH/+T/XjSy/9Wd+XAbmop4sdGtqexotrq93doe4OM1QFA+MxFsh/XIqWC4tbbvzcQpfpxXbXSvs1ymF/b3Xqd0C/Ub9r0YIDANa5qQ/LY2kNLDVQWW4Qk9u4FWt5jQCAFoOMAgAAANkTcAAAAADZE3AAAAAA2RNwAAAAANkTcAAAAADZE3AAAAAA2RNwAAAAANkTcAAAAADZE3AAAAAA2RNwAAAAANkTcAAAAADZE3AAAAAA2RNwAAAAANkTcAAAAADZE3AAAAAA2RNwAAAAANkTcAAAAADZE3AAAAAA2RNwAAAAANkTcAAAAADZE3AAAAAA2RNwAAAAANkTcAAAAADZE3AAAAAA2RtK0Geef/4bXZ/ft++ltHnztrRUn332aTp27Nv174cP/3MCAGB1qN8BQcBB37lw4UzX5z/77FpajuvXP51z3evBJ59crh/vvHNzWi3Xr19Ln3/+abrttjvS7bdvSAAAK0H9Tv0Ogi4q9J0TJ/444+eee3amfvDDH34jjYx8ebogXA1Xrpyvtzk6+jcJAGClqN+p30EQcAAAAADZE3AAAAAA2TMGB0ty9uy76dSp19KOHd9Mu3d/d/r5eC5ee/DB76a/+ItvTj9/8uSLdf/FbgM9xfPx+tWrV+q/v/jFO+r37N37g7Rx4+z+hO2DPTV27nw43X//w9PravpKxrpeeOF/9bRfYuf+bty4qTquv6+2tbJ9EGO7cX4vXz5fN0PctOkrNz1Ply//Jp0+/dr033HewltvfT/dfvsdM9770EPP1Mcx33ZDvK853918+OHb6Xe/a53/6Lfa7Mvrr39nxvvi2sT/h26ib+fp0z+utx3Lhs2bv3LT7QKwPOXI8IY0MPRkKtKu6q9XiqMX30n0FfU79Tv1O3In4GBJ7rxzU31ziptYewEYhV88Hzfm9gLw7Nn/Wd9AY7l2P/3p36YzZ05MrbN1E79y5Tf1T6zn4MGf1Te+dnFTbQqfGDgqbuz33PP1etudBWNz0++VKPhOnnyh/j2OPQq92M/Dh7+WHnvsJ2mlREH21ltP17/H+di4cWd9bGfOvF3/xHmKyki7eD0Ko05xnjpFwdKtAOx2feJ4m0IxKhed4rXYp/n2Jf4vdCsAr169XF/H6N8Z57gp3Jvtxs/jj6/cuQboW4ODx6p/97f+KHaVh7bsr0KONxN9Q/1O/U79jtwJOFiSuAnHzalJXxvN37/97Y3RpuPmF4Xfpk3bZiTLUZjEzTVuhHFDawaDisItno/X40b4/PO/mrFc3KhHR/+t/j1uqk1yHAVEbGP37ifSvfd+vS4oY9u33dab5D2OrSn8otCPVLzZr3j+xImn00p5771X68eYnqx90KwohGK7P/3pd6rz8H9nLBPvi0G2GiMj91XfDFypz91CvvGIc9tcn/aKSFyf55//b3Ul5dSpV+vz3S6uZVNARWEV07bFvix0arW47lH4RaEcBWRzjpvtRuEa+9Je8QKgF4qOArM4XoUcScjRP9Tv1O/U78idMThYsrgJxQ21vZlaFDiRNMcNrP355v3tPvywlRw/8shLM27qUcDt3ftM/Vysv0mYb+bs2V/UBfLhw+/VTdziBh/bi3V0NtdbqihsQueNOcT+rlTTujh/cR6icO8cETwKgUce+fv6sTnfvfL559fqY+r8liWuT1yzcOHCL1MvRbofBVyT/ndWfJqCtfm/A0APFemVLk9GyPFoom+o36nfqd+RMwEHS9b0tYybc/tjk7w2fzfNCNtv3s1NPW50nU3vGlHQhChM5xPrO3jwf/SssOsmEu0wV0H34INPpJXQ9P2M8xUFRLftRgHc62OP9UazzM6KS2ufWtvqdRPR5lrHNrsdT/wfiv8z7RUsAHqj+NFHY6ksD3R5RcjRR9TvZlK/Wz71O1aTLiosWQyCFC5f/nVdGEZztSaFjhvkhQsfTj8f2m+kzY2z2+BJjabPYNMf82Zim3MNotQrzQ13ru2s1PZjvXF8rT6rX64rDPF39EvtVjj1WgwI9bvf/XL6+GMArIVck6VobxLbrX9pu/gGYiUrPAD9qHj54vHyqS3VL8UbHa/ortIn1O9mUr9bPvU7VpOAgyVrEvsmlY1+mM0NOR7bn29Gzl4pK134rbVoRhj9QJtRzJuBpCLtjusw10jbyxEF34kT3581oNRqaD9GAFaXkKO/qd+tHvU76D0BB0sWhU4UbE3aG+ls0+wwCrtmIKoYCXs1kuhbWTPlVgx81YxAHv0jmxGtW4M9/aqniffrr/9tXQhFARvNUpsKTAzqFfsQg0utlNjefINM9XJqOABmEnL0L/W71aN+N5v6Hcsl4GBZ4uYYBV8zAFVT0EXzxkijo3CMhD8S6HZNH79IkXNz/fr/q26+s5/v1n+y16KAazVfvDEi+eHDf1n334xCsH3qtuWIY4nCL67TyMjPVq2pYHuhpoADWFtCjv6lfneD+t3yqd+xmgwyyrLEdF1x8+1sptjcoJtmaE1/zkY0t4v3RzPHuQqOpo/eSjZ9XIymcI8537vp9YjTjTg/Ubh1O0/xLUsziFd8k9IrzQBi0USyW+G30D6ai63oNNf6Zv0zo7IV58MgVAArL0IOA4/2H/W7G9TvZlO/Yz0TcLAsTcEWaX7nVFNx82ume+qc/ipea27cx479zaybWTTLa/oGrtTo1YvV7G8cazOwVqN9DvVe+9d/fbduLtjtPEXB0uzLfH00m9ffe++1NJ/mWnaroMTfCz3WZpuxnvYBpm623SgE49uimC+9Uxzr4cNfq+eFNwAVwOoQcvQf9bsW9bubb1P9jvWoSH3u6af/vYzHbdu+kFi8uFE99th/qX+PZooxnVXj2LFv1wl/pMSjo/+n67LPPPOX09OJNXOax7cFzU29c52NEyeerpdvpd+/rJe/994bhWwUVnNNT/b669+Z8Xf0JY19iFGr2wuRbuuIgqjZt2Zk70i747nY1+amfeLEH1OvdJ6naKYYFYh4PpLweIx9OXz4n2+6nrgWcU1CrKeZqiv2P/p/dn6T0ly/EH1v41ibfqHRfzIqAgvZbhRWTWWmGYG9EYNrdYqCMs5zHFfsZzNtW7PtZrm5ri/zO3/+T/XjSy/9Wd+XAcDClU9t2T+7u0r9yv711l1F/W551O/U79Tv8qN+1yLgUAAu28jIffXNOfrytfcRPH361fTWW9+vb1TdbnQhbr6RFneO5BzfHPz1X/9gzptcs825zFVwhn37/nNaiG7riJvyW289PWN/44YeBUK8t1l3LwvAMNd5arYd34IsJPGOArMZtKpdFGKd38LMdaxxXnbs+Kvqmt63oAIwxL6fPfuLGSn/XBWjNHW8UVHp3M9mRPHOfWVxFIDAUuUScqjfLZ/6nfrdfNTv1hf1uxYBhwJw3bjRFG/Tuh+AKJoSxnzhIfZ1NZvTNQN+rdZ5imONUbWj8FvtY13Lbd/K1msBWB7aWrb/XRz9qFjM+ztZ3vKWX5nlcwg51O/WD/W7hVG/Y7kEHC1mUWHdyCm1jRvx7bevzdRoqz0lWzOy91pYy20D0F09u8qhrV0CjmK0+sfMKsygfrcw6nfQGwYZBQBg+coyv7lBAbilCDgAAFiwm8yc8lwCgDVkDA59NIE+o48msFStcKM4PvuF8kA9new6oX4H9Bv1uxYtOAAAmFcu4QYA/UvAAQDATQk3AMiBgAMAgDkJNwDIhYADAICuhBsA5ETAAQDALMINAHIzlGAFfPjh2+mTTy6nnTv3pY0bN6WVcvbsu+ny5d+kHTu+mTZv/koCAJZPuEE3q1W/WysnT75QPz744BPp9tvvSEB+tOCg506efDG9/vp30tWrV1a88Lvzzk319o4d+3a6fv3TBAAsj3CDblazfreW4jiboAPIj4CDnrp69fJ0obB37zMLXi6+DYifxYpWG3v3/qBa9orCCACWSbhBN6tdv1uuCxfOpMOHv5ZGRr6cTp16bcHL7d79RP3l2enTr9XrAPIj4KCnIvUOO3c+vKh0/4c//EZdCC1FFEZf/OIddWEUBTAAsHhVuLFHuEE3a1G/W4rr16+lEye+n55//ht1F+YIVz777NqCl4/6ZBPgNMcM5EXAQc9EuHDmzNv174tJ95crCqP773+4/j1CDgBgKYonZz0l3Oh7a1W/W6ym1capU6/WrTDuuWdnWoqoU0bdMtanFQfkR8BBz1y48Mv6MQb8XO2+mbHNEINfAQBLUKQPZvwt3CCtbf0uxvyI1hjziW4o8b7osrx793er339VBRxfT0sV6wgxmD2QF7Oo0DNNIdCEDTcTzQbbW1t89llrgNAoyDo99NAz8xaokdJH2h7ruXz5fNq8eVsCABZhfHw0DQ4OV0nHHVXY8Upx9OJYou+tZf3ut789U4cW84luKNFq4/HHf7LklhvtWut4Mf3Lv7yb9u17KQH5EHDQM80gUguZrjUKvG6tLbo9t9D+nlEYtaaN/bWAAwAWqRi9FIMV7E/QZq3rdwuxY8df9XRq1+ZYI1yJWfpMGQv5EHDQM9FyIkSCPp8II06c+OP03yMj99WFyOjov1XLb05L0RSSV66cTwAALN9a1+8WotdfbEWr4Dje2Pf4uf12X5xBLozBQU/EnOiNtUq5m4CjaQ4JAMDSrYf63VrZuLEVyCxmFhZg7WnBQU8tJN1fKbfdtiEBANBbK12/iy+nYryLbs+Hbl1cYhDRJoRYSdFFBciHgIOeWsvWE59/LmEHAOi1la7fRYjQbSDSRrfXHnvsx6sScBh/A/Ii4KAnmpt/FIBrNRhTk7CvZSsSAIBbxWrV72K9jz32k1nPnzjxdL3tbq/1YraUm9E1BfIk4KAn2gdjipYUaxFwNINgxb4AALA8q1W/i+3cf//Ds54/efKFOuDo9tpKa+qVmzbNP3sMsH4YZJSeaabU6taHcjXE3Ovt+wEAwPKsdf1uLVy4cKZ+jHBHFxXIi4CDnrn33q/Xj2fP/iKttgg34tuFKIhWuskiAEC/WMv63VppAg51SsiPgIOe2blzX/0YYcNiR5xuBol6773X0lKcOtVaTkEEANA7a1m/WyvNrC1r0TUGWB5jcNAz0X8yAoZIvU+ffjXt3fvMgpfdvfu7U8u9Vn1D8G7dHDKaBMb8648//uN0551zj5J99erl6aR9MdsEAODm1qp+F+L9C5kpJb7oar7sajSDhMbzH374jzNeO3jwZ9W6t3VdV4QbWgVDvgQc9FSMcn3w4H11YfLgg08suN/ijh3frJc9c+btuiCMgmWhzpz5x/r9O3c+XBWCZlABAOiltajfhQgiFiLCjE8+uTzHa5/Omub2ZjOkxMCmwZdmkCcBBz0VAcO+fS/V03pFAfHIIy8teNloBrjYpoDReiO2Eym7gggAoPdWu363WFEH7EU9MFqaNF+a6Z4CeRJw0HPRHLGVpF+pmyCuZKuK+EYgCqD4NkHrDQCAlbGa9bu1El+cRb3y4YcXHuAA64uAgxWxWq0ptNoAAFgdt3q9K1qpAHkziwoAAACQPQEHAAAAkD0BBwAAAJA9AQcAAACQPQEHAAAAkD0BBwAAAJA9AQcAAACQPQEHAAAAkD0BBwAAAJA9AQcAAACQPQEHAAAAkD0BBwAAAJA9AQcAAACQPQEHAAAAkD0BBwAAAJA9AQcAAACQPQEHAAAAkD0BBwAAAJA9AQcAAACQPQEHAAAAkD0BBwAAAJA9AQcAAACQPQEHAAAAkD0BBwAAAJA9AQcAAACQPQEHAAAAkD0BBwAAAJA9AQcAAACQPQEHAAAAkD0BBwAAAJA9AQcAAACQPQEHAAAAkD0BBwAAAJA9AQcAAACQPQEHAAAAkD0BBwAAAJA9AQcAAACQPQEHAAAAkD0BBwAAAJA9AQcAAACQPQEHAAAAkD0BBwAAAJA9AQcAAACQPQEHAAAAkD0BBwAAAJA9AQcAAACQPQEHAAAAkD0BBwAAAJA9AQcAAACQPQEHAAAAkD0BBwAAAJA9AQcAAACQPQEHAAAAkD0BBwAAAJA9AQcAAACQPQEHAAAAkD0BBwAAAJA9AQcAAACQPQEHAAAAkD0BBwAAAJA9AQcAAACQPQEHAAAAkD0BBwAAAJA9AQcAAACQPQEHAAAAkD0BBwAAAJA9AQcAAACQPQEHAAAAkD0BBwAAAJA9AQcAAACQPQEHAAAAkD0BBwAAAJA9AQcAAACQPQEHAAAAkD0BBwAAAJA9AQcAAACQPQEHAAAAkD0BBwAAAJA9AQcAAACQPQEHAAAAkD0BBwAAAJA9AQcAAACQPQEHAAAAkD0BBwAAAJA9AQcAAACQPQEHAAAAkD0BBwAAAJA9AQcAAACQPQEHAAAAkD0BBwAAAJA9AQcAAACQPQEHAAAAkL2hxLXqZ8P5839KAH3kUgK4danfAf3oUupzfd+CoyjKg8l/BKC/XCuKiecSwC1K/Q7oQ+p3AAAAAAAAAAAAAAAAAAAAAAAAAAAAAAAAAAAAAAAAAAAAAAAAAAAAAAAAAAAAAAAAAAAAAAAAAAAAAAAAAAAAAAAAAAAAAAAAAAAAAAAAAAAAAAAAAAAAAAAAAAAAAAAAAAAAAAAAAAAAAAAAAAAAAAAAAAAAAAAAAAAAAAAAAAAAAAAAAAAAAAAAAAAAAAAAAAAAAAAAAAAAAAAAAAAAAAAAAAAAAAAAAAAAAAAAAAAAAAAAAAAAAAAAAAAAAAAAAAAAAAAAAAAAAAAAAAAAAAAAAAAAAAAAAAAAAAAAAAAAAAAAAAAAAAAAAAAAAAAAAAAAAAAAAAAAAAAAAAAAAAAAAAAAAAAAAAAAAAAAAAAAAAAAAAAAAAAAAAAAAAAAAAAAAAAAAAAAAAAAAAAAAAAAAAAAAAAAAAAAAAAAAAAAAAAAAAAAAAAAAAAAAAAAAAAAAAAAAAAAAAAAAAAAAAAAAAAAAAAAAAAAAAAAAAAAAAAAAAAAAAAAAAAAAAAAAAAAAAAAAAAAAAAAAAAAAAAAAAAAAAAAAAAAAAAAAAAAAAAAAAAAAAAAAAAAAAAAAAAAAAAAAAAAAAAAAAAAAAAAAAAAAAAAAAAAAAAAAAAAAAAAAAAAAAAAAAAAAAAAAAAAAAAAAAAAAAAAAAAAAAAAAAAAAAAAAAAAAAAAAAAAAAAAAAAAAAAAAAAAAAAAAAAAAAAAAAAAAAAAAAAAAAAAAAAAAAAAAAAAAAAAAAAAAAAAAAAAAAAAAAAAAAAAAAAAAAAAAAAAAAAAAAAAAAAAAAAAAAAAAAAAAAAAAAAAAAAAAAAAAAAAAAAAAAAAAAAAAAAAAAAAAAAAAAAAAAAAAAAAAAAAAAAAAAAAAAAAAAAAAAAAAAAAAAAAAAAAAAAAAAAAAAAAAAAAAAAAAAAAAAAAAAAAAAAAAAAAAAAAAAAAAAAAAAAAAAAAAAAAAAAAAAAAAAAAAAAAAAAAAAAAAAAAAAAAAAAAAAD0k/8PnWsb4wfP/e0AAAAASUVORK5CYII="},246:function(A,t,e){A.exports=e.p+"assets/img/gas-tx.c3638b26.png"},514:function(A,t,e){"use strict";e.r(t);var a=e(0),s=Object(a.a)({},(function(){var A=this,t=A.$createElement,a=A._self._c||t;return a("div",{staticClass:"content"},[a("p",[A._v("Transactions are cryptographically signed instructions from accounts. An account will initiate a transaction to update the state of the ENULS network. The simplest transaction is transferring NULS from one account to another.")]),A._v(" "),A._m(0),A._v(" "),a("p",[A._v("To help you better understand this page, we recommend you first read "),a("router-link",{attrs:{to:"/developers/docs/accounts/"}},[A._v("Accounts")]),A._v(" and our "),a("router-link",{attrs:{to:"/developers/docs/intro-to-ENULS/"}},[A._v("introduction to ENULS")]),A._v(".")],1),A._v(" "),A._m(1),A._v(" "),a("p",[A._v("An ENULS transaction refers to an action initiated by an externally-owned account, in other words an account managed by a human, not a contract. For example, if Bob sends Alice 1 NULS, Bob's account must be debited and Alice's must be credited. This state-changing action takes place within a transaction.")]),A._v(" "),a("p",[a("img",{attrs:{src:e(245),alt:"Diagram showing a transaction cause state change"}}),A._v(" "),a("em",[A._v("Diagram adapted from "),a("a",{attrs:{href:"https://takenobu-hs.github.io/downloads/ENULS_evm_illustrated.pdf",target:"_blank",rel:"noopener noreferrer"}},[A._v("ENULS EVM illustrated"),a("OutboundLink")],1)])]),A._v(" "),a("p",[A._v("Transactions, which change the state of the EVM, need to be broadcast to the whole network. Any node can broadcast a request for a transaction to be executed on the EVM; after this happens, a validator will execute the transaction and propagate the resulting state change to the rest of the network.")]),A._v(" "),a("p",[A._v("Transactions require a fee and must be included in a validated block. To make this overview simpler we'll cover gas fees and validation elsewhere.")]),A._v(" "),a("p",[A._v("A submitted transaction includes the following information:")]),A._v(" "),A._m(2),A._v(" "),a("p",[A._v("Gas is a reference to the computation required to process the transaction by a validator. Users have to pay a fee for this computation. The "),a("code",[A._v("gasLimit")]),A._v(", and "),a("code",[A._v("maxPriorityFeePerGas")]),A._v(" determine the maximum transaction fee paid to the validator. "),a("router-link",{attrs:{to:"/developers/docs/gas/"}},[A._v("More on Gas")]),A._v(".")],1),A._v(" "),a("p",[A._v("The transaction object will look a little like this:")]),A._v(" "),A._m(3),a("p",[A._v("But a transaction object needs to be signed using the sender's private key. This proves that the transaction could only have come from the sender and was not sent fraudulently.")]),A._v(" "),a("p",[A._v("An ENULS client like GNULS will handle this signing process.")]),A._v(" "),A._m(4),A._v(" "),A._m(5),a("p",[A._v("Example response:")]),A._v(" "),A._m(6),A._m(7),A._v(" "),a("p",[A._v("With the signature hash, the transaction can be cryptographically proven that it came from the sender and submitted to the network.")]),A._v(" "),A._m(8),A._v(" "),a("p",[A._v("The vast majority of transactions access a contract from an externally-owned account.\nMost contracts are written in Solidity and interpret their data field in accordance with the "),a("router-link",{attrs:{to:"/glossary/#abi"}},[A._v("application binary interface (ABI)")]),A._v(".")],1),A._v(" "),a("p",[A._v("The first four bytes specify which function to call, using the hash of the function's name and arguments.\nYou can sometimes identify the function from the selector using "),a("a",{attrs:{href:"https://www.4byte.directory/signatures/",target:"_blank",rel:"noopener noreferrer"}},[A._v("this database"),a("OutboundLink")],1),A._v(".")]),A._v(" "),a("p",[A._v("The rest of the calldata is the arguments, "),a("a",{attrs:{href:"https://docs.soliditylang.org/en/latest/abi-spec.html#formal-specification-of-the-encoding",target:"_blank",rel:"noopener noreferrer"}},[A._v("encoded as specified in the ABI specs"),a("OutboundLink")],1),A._v(".")]),A._v(" "),a("p",[A._v("For example, lets look at "),a("a",{attrs:{href:"https://NULSscan.io/tx/0xd0dcbe007569fcfa1902dae0ab8b4e078efe42e231786312289b1eee5590f6a1",target:"_blank",rel:"noopener noreferrer"}},[A._v("this transaction"),a("OutboundLink")],1),A._v(".\nUse "),a("strong",[A._v("Click to see More")]),A._v(" to see the calldata.")]),A._v(" "),a("p",[A._v("The function selector is "),a("code",[A._v("0xa9059cbb")]),A._v(". There are several "),a("a",{attrs:{href:"https://www.4byte.directory/signatures/?bytes4_signature=0xa9059cbb",target:"_blank",rel:"noopener noreferrer"}},[A._v("known functions with this signature"),a("OutboundLink")],1),A._v(".\nIn this case "),a("a",{attrs:{href:"https://NULSscan.io/address/0xa0b86991c6218b36c1d19d4a2e9eb0ce3606eb48#code",target:"_blank",rel:"noopener noreferrer"}},[A._v("the contract source code"),a("OutboundLink")],1),A._v(" has been uploaded to NULSscan, so we know the function is "),a("code",[A._v("transfer(address,uint256)")]),A._v(".")]),A._v(" "),a("p",[A._v("The rest of the data is:")]),A._v(" "),A._m(9),a("p",[A._v("According to the ABI specifications, integer values (such as addresses, which are 20-byte integers) appear in the ABI as 32-byte words, padded with zeros in the front.\nSo we know that the "),a("code",[A._v("to")]),A._v(" address is "),a("a",{attrs:{href:"https://NULSscan.io/address/0x4f6742badb049791cd9a37ea913f2bac38d01279",target:"_blank",rel:"noopener noreferrer"}},[a("code",[A._v("4f6742badb049791cd9a37ea913f2bac38d01279")]),a("OutboundLink")],1),A._v(".\nThe "),a("code",[A._v("value")]),A._v(" is 0x3b0559f4 = 990206452.")]),A._v(" "),A._m(10),A._v(" "),a("p",[A._v("On ENULS there are a few different types of transactions:")]),A._v(" "),A._m(11),A._v(" "),A._m(12),A._v(" "),a("p",[A._v("As mentioned, transactions cost "),a("router-link",{attrs:{to:"/developers/docs/gas/"}},[A._v("gas")]),A._v(" to execute. Simple transfer transactions require 21000 units of Gas.")],1),A._v(" "),A._m(13),A._v(" "),A._m(14),A._m(15),A._v(" "),A._m(16),A._v(" "),A._m(17),A._v(" "),A._m(18),A._v(" "),a("p",[A._v("Gas is required for any smart contract interaction too.")]),A._v(" "),a("p",[a("img",{attrs:{src:e(246),alt:"Diagram showing how unused gas is refunded"}}),A._v(" "),a("em",[A._v("Diagram adapted from "),a("a",{attrs:{href:"https://takenobu-hs.github.io/downloads/ENULS_evm_illustrated.pdf",target:"_blank",rel:"noopener noreferrer"}},[A._v("ENULS EVM illustrated"),a("OutboundLink")],1)])]),A._v(" "),a("p",[A._v("Any gas not used in a transaction is refunded to the user account.")]),A._v(" "),A._m(19),A._v(" "),a("p",[A._v("Once the transaction has been submitted the following happens:")]),A._v(" "),A._m(20),A._v(" "),A._m(21),A._v(" "),a("p",[A._v("Watch Austin walk you through transactions, gas, and mining.")]),A._v(" "),a("YouTube",{attrs:{id:"er-0ihqFQB0"}}),A._v(" "),A._m(22),A._v(" "),a("p",[A._v("ENULS originally had one format for transactions. Each transaction contained a nonce, gas price, gas limit, to address, value, data, v, r, and s. These fields are RLP-encoded, to look somNULSing like this:")]),A._v(" "),A._m(23),A._v(" "),a("p",[A._v("ENULS has evolved to support multiple types of transactions to allow for new features such as access lists and "),a("a",{attrs:{href:"https://eips.ENULS.org/EIPS/eip-1559",target:"_blank",rel:"noopener noreferrer"}},[A._v("EIP-1559"),a("OutboundLink")],1),A._v(" to be implemented without affecting legacy transaction formats.")]),A._v(" "),a("p",[a("a",{attrs:{href:"https://eips.ENULS.org/EIPS/eip-2718",target:"_blank",rel:"noopener noreferrer"}},[A._v("EIP-2718"),a("OutboundLink")],1),A._v(" is what allows for this behaviour. Transactions are interpreted as:")]),A._v(" "),A._m(24),A._v(" "),a("p",[A._v("Where the fields are defined as:")]),A._v(" "),A._m(25),A._v(" "),A._m(26),A._v(" "),a("ul",[a("li",[a("a",{attrs:{href:"https://eips.ENULS.org/EIPS/eip-2718",target:"_blank",rel:"noopener noreferrer"}},[A._v("EIP-2718: Typed Transaction Envelope"),a("OutboundLink")],1)])]),A._v(" "),A._m(27),A._v(" "),A._m(28),A._v(" "),a("ul",[a("li",[a("router-link",{attrs:{to:"/developers/docs/accounts/"}},[A._v("Accounts")])],1),A._v(" "),a("li",[a("router-link",{attrs:{to:"/developers/docs/evm/"}},[A._v("ENULS virtual machine (EVM)")])],1),A._v(" "),a("li",[a("router-link",{attrs:{to:"/developers/docs/gas/"}},[A._v("Gas")])],1)])],1)}),[function(){var A=this.$createElement,t=this._self._c||A;return t("h2",{attrs:{id:"prerequisites"}},[t("a",{staticClass:"header-anchor",attrs:{href:"#prerequisites"}},[this._v("#")]),this._v(" Prerequisites")])},function(){var A=this.$createElement,t=this._self._c||A;return t("h2",{attrs:{id:"what-s-a-transaction"}},[t("a",{staticClass:"header-anchor",attrs:{href:"#what-s-a-transaction"}},[this._v("#")]),this._v(" What's a transaction?")])},function(){var A=this,t=A.$createElement,e=A._self._c||t;return e("ul",[e("li",[e("code",[A._v("from")]),A._v(" – the address of the sender, that will be signing the transaction. This will be an externally-owned account as contract accounts cannot send transactions.")]),A._v(" "),e("li",[e("code",[A._v("recipient")]),A._v(" – the receiving address (if an externally-owned account, the transaction will transfer value. If a contract account, the transaction will execute the contract code)")]),A._v(" "),e("li",[e("code",[A._v("signature")]),A._v(" – the identifier of the sender. This is generated when the sender's private key signs the transaction and confirms the sender has authorized this transaction")]),A._v(" "),e("li",[e("code",[A._v("nonce")]),A._v(" - a sequentially incrementing counter which indicates the transaction number from the account")]),A._v(" "),e("li",[e("code",[A._v("value")]),A._v(" – amount of NULS to transfer from sender to recipient (in WEI, a denomination of NULS)")]),A._v(" "),e("li",[e("code",[A._v("data")]),A._v(" – optional field to include arbitrary data")]),A._v(" "),e("li",[e("code",[A._v("gasLimit")]),A._v(" – the maximum amount of gas units that can be consumed by the transaction. Units of gas represent computational steps")]),A._v(" "),e("li",[e("code",[A._v("maxPriorityFeePerGas")]),A._v(" - the maximum price of the consumed gas to be included as a tip to the validator")]),A._v(" "),e("li",[e("code",[A._v("maxFeePerGas")]),A._v(" - the maximum fee per unit of gas willing to be paid for the transaction (inclusive of "),e("code",[A._v("baseFeePerGas")]),A._v(" and "),e("code",[A._v("maxPriorityFeePerGas")]),A._v(")")])])},function(){var A=this,t=A.$createElement,e=A._self._c||t;return e("div",{staticClass:"language-js extra-class"},[e("pre",{pre:!0,attrs:{class:"language-js"}},[e("code",[e("span",{pre:!0,attrs:{class:"token punctuation"}},[A._v("{")]),A._v("\n  "),e("span",{pre:!0,attrs:{class:"token keyword"}},[A._v("from")]),e("span",{pre:!0,attrs:{class:"token operator"}},[A._v(":")]),A._v(" "),e("span",{pre:!0,attrs:{class:"token string"}},[A._v('"0xEA674fdDe714fd979de3EdF0F56AA9716B898ec8"')]),e("span",{pre:!0,attrs:{class:"token punctuation"}},[A._v(",")]),A._v("\n  to"),e("span",{pre:!0,attrs:{class:"token operator"}},[A._v(":")]),A._v(" "),e("span",{pre:!0,attrs:{class:"token string"}},[A._v('"0xac03bb73b6a9e108530aff4df5077c2b3d481e5a"')]),e("span",{pre:!0,attrs:{class:"token punctuation"}},[A._v(",")]),A._v("\n  gasLimit"),e("span",{pre:!0,attrs:{class:"token operator"}},[A._v(":")]),A._v(" "),e("span",{pre:!0,attrs:{class:"token string"}},[A._v('"21000"')]),e("span",{pre:!0,attrs:{class:"token punctuation"}},[A._v(",")]),A._v("\n  maxFeePerGas"),e("span",{pre:!0,attrs:{class:"token operator"}},[A._v(":")]),A._v(" "),e("span",{pre:!0,attrs:{class:"token string"}},[A._v('"300"')]),e("span",{pre:!0,attrs:{class:"token punctuation"}},[A._v(",")]),A._v("\n  maxPriorityFeePerGas"),e("span",{pre:!0,attrs:{class:"token operator"}},[A._v(":")]),A._v(" "),e("span",{pre:!0,attrs:{class:"token string"}},[A._v('"10"')]),e("span",{pre:!0,attrs:{class:"token punctuation"}},[A._v(",")]),A._v("\n  nonce"),e("span",{pre:!0,attrs:{class:"token operator"}},[A._v(":")]),A._v(" "),e("span",{pre:!0,attrs:{class:"token string"}},[A._v('"0"')]),e("span",{pre:!0,attrs:{class:"token punctuation"}},[A._v(",")]),A._v("\n  value"),e("span",{pre:!0,attrs:{class:"token operator"}},[A._v(":")]),A._v(" "),e("span",{pre:!0,attrs:{class:"token string"}},[A._v('"10000000000"')]),A._v("\n"),e("span",{pre:!0,attrs:{class:"token punctuation"}},[A._v("}")]),A._v("\n")])])])},function(){var A=this.$createElement,t=this._self._c||A;return t("p",[this._v("Example "),t("a",{attrs:{href:"/developers/docs/apis/json-rpc"}},[this._v("JSON-RPC")]),this._v(" call:")])},function(){var A=this,t=A.$createElement,e=A._self._c||t;return e("div",{staticClass:"language-json extra-class"},[e("pre",{pre:!0,attrs:{class:"language-json"}},[e("code",[e("span",{pre:!0,attrs:{class:"token punctuation"}},[A._v("{")]),A._v("\n  "),e("span",{pre:!0,attrs:{class:"token property"}},[A._v('"id"')]),e("span",{pre:!0,attrs:{class:"token operator"}},[A._v(":")]),A._v(" "),e("span",{pre:!0,attrs:{class:"token number"}},[A._v("2")]),e("span",{pre:!0,attrs:{class:"token punctuation"}},[A._v(",")]),A._v("\n  "),e("span",{pre:!0,attrs:{class:"token property"}},[A._v('"jsonrpc"')]),e("span",{pre:!0,attrs:{class:"token operator"}},[A._v(":")]),A._v(" "),e("span",{pre:!0,attrs:{class:"token string"}},[A._v('"2.0"')]),e("span",{pre:!0,attrs:{class:"token punctuation"}},[A._v(",")]),A._v("\n  "),e("span",{pre:!0,attrs:{class:"token property"}},[A._v('"mNULSod"')]),e("span",{pre:!0,attrs:{class:"token operator"}},[A._v(":")]),A._v(" "),e("span",{pre:!0,attrs:{class:"token string"}},[A._v('"account_signTransaction"')]),e("span",{pre:!0,attrs:{class:"token punctuation"}},[A._v(",")]),A._v("\n  "),e("span",{pre:!0,attrs:{class:"token property"}},[A._v('"params"')]),e("span",{pre:!0,attrs:{class:"token operator"}},[A._v(":")]),A._v(" "),e("span",{pre:!0,attrs:{class:"token punctuation"}},[A._v("[")]),A._v("\n    "),e("span",{pre:!0,attrs:{class:"token punctuation"}},[A._v("{")]),A._v("\n      "),e("span",{pre:!0,attrs:{class:"token property"}},[A._v('"from"')]),e("span",{pre:!0,attrs:{class:"token operator"}},[A._v(":")]),A._v(" "),e("span",{pre:!0,attrs:{class:"token string"}},[A._v('"0x1923f626bb8dc025849e00f99c25fe2b2f7fb0db"')]),e("span",{pre:!0,attrs:{class:"token punctuation"}},[A._v(",")]),A._v("\n      "),e("span",{pre:!0,attrs:{class:"token property"}},[A._v('"gas"')]),e("span",{pre:!0,attrs:{class:"token operator"}},[A._v(":")]),A._v(" "),e("span",{pre:!0,attrs:{class:"token string"}},[A._v('"0x55555"')]),e("span",{pre:!0,attrs:{class:"token punctuation"}},[A._v(",")]),A._v("\n      "),e("span",{pre:!0,attrs:{class:"token property"}},[A._v('"maxFeePerGas"')]),e("span",{pre:!0,attrs:{class:"token operator"}},[A._v(":")]),A._v(" "),e("span",{pre:!0,attrs:{class:"token string"}},[A._v('"0x1234"')]),e("span",{pre:!0,attrs:{class:"token punctuation"}},[A._v(",")]),A._v("\n      "),e("span",{pre:!0,attrs:{class:"token property"}},[A._v('"maxPriorityFeePerGas"')]),e("span",{pre:!0,attrs:{class:"token operator"}},[A._v(":")]),A._v(" "),e("span",{pre:!0,attrs:{class:"token string"}},[A._v('"0x1234"')]),e("span",{pre:!0,attrs:{class:"token punctuation"}},[A._v(",")]),A._v("\n      "),e("span",{pre:!0,attrs:{class:"token property"}},[A._v('"input"')]),e("span",{pre:!0,attrs:{class:"token operator"}},[A._v(":")]),A._v(" "),e("span",{pre:!0,attrs:{class:"token string"}},[A._v('"0xabcd"')]),e("span",{pre:!0,attrs:{class:"token punctuation"}},[A._v(",")]),A._v("\n      "),e("span",{pre:!0,attrs:{class:"token property"}},[A._v('"nonce"')]),e("span",{pre:!0,attrs:{class:"token operator"}},[A._v(":")]),A._v(" "),e("span",{pre:!0,attrs:{class:"token string"}},[A._v('"0x0"')]),e("span",{pre:!0,attrs:{class:"token punctuation"}},[A._v(",")]),A._v("\n      "),e("span",{pre:!0,attrs:{class:"token property"}},[A._v('"to"')]),e("span",{pre:!0,attrs:{class:"token operator"}},[A._v(":")]),A._v(" "),e("span",{pre:!0,attrs:{class:"token string"}},[A._v('"0x07a565b7ed7d7a678680a4c162885bedbb695fe0"')]),e("span",{pre:!0,attrs:{class:"token punctuation"}},[A._v(",")]),A._v("\n      "),e("span",{pre:!0,attrs:{class:"token property"}},[A._v('"value"')]),e("span",{pre:!0,attrs:{class:"token operator"}},[A._v(":")]),A._v(" "),e("span",{pre:!0,attrs:{class:"token string"}},[A._v('"0x1234"')]),A._v("\n    "),e("span",{pre:!0,attrs:{class:"token punctuation"}},[A._v("}")]),A._v("\n  "),e("span",{pre:!0,attrs:{class:"token punctuation"}},[A._v("]")]),A._v("\n"),e("span",{pre:!0,attrs:{class:"token punctuation"}},[A._v("}")]),A._v("\n")])])])},function(){var A=this,t=A.$createElement,e=A._self._c||t;return e("div",{staticClass:"language-json extra-class"},[e("pre",{pre:!0,attrs:{class:"language-json"}},[e("code",[e("span",{pre:!0,attrs:{class:"token punctuation"}},[A._v("{")]),A._v("\n  "),e("span",{pre:!0,attrs:{class:"token property"}},[A._v('"jsonrpc"')]),e("span",{pre:!0,attrs:{class:"token operator"}},[A._v(":")]),A._v(" "),e("span",{pre:!0,attrs:{class:"token string"}},[A._v('"2.0"')]),e("span",{pre:!0,attrs:{class:"token punctuation"}},[A._v(",")]),A._v("\n  "),e("span",{pre:!0,attrs:{class:"token property"}},[A._v('"id"')]),e("span",{pre:!0,attrs:{class:"token operator"}},[A._v(":")]),A._v(" "),e("span",{pre:!0,attrs:{class:"token number"}},[A._v("2")]),e("span",{pre:!0,attrs:{class:"token punctuation"}},[A._v(",")]),A._v("\n  "),e("span",{pre:!0,attrs:{class:"token property"}},[A._v('"result"')]),e("span",{pre:!0,attrs:{class:"token operator"}},[A._v(":")]),A._v(" "),e("span",{pre:!0,attrs:{class:"token punctuation"}},[A._v("{")]),A._v("\n    "),e("span",{pre:!0,attrs:{class:"token property"}},[A._v('"raw"')]),e("span",{pre:!0,attrs:{class:"token operator"}},[A._v(":")]),A._v(" "),e("span",{pre:!0,attrs:{class:"token string"}},[A._v('"0xf88380018203339407a565b7ed7d7a678680a4c162885bedbb695fe080a44401a6e4000000000000000000000000000000000000000000000000000000000000001226a0223a7c9bcf5531c99be5ea7082183816eb20cfe0bbc322e97cc5c7f71ab8b20ea02aadee6b34b45bb15bc42d9c09de4a6754e7000908da72d48cc7704971491663"')]),e("span",{pre:!0,attrs:{class:"token punctuation"}},[A._v(",")]),A._v("\n    "),e("span",{pre:!0,attrs:{class:"token property"}},[A._v('"tx"')]),e("span",{pre:!0,attrs:{class:"token operator"}},[A._v(":")]),A._v(" "),e("span",{pre:!0,attrs:{class:"token punctuation"}},[A._v("{")]),A._v("\n      "),e("span",{pre:!0,attrs:{class:"token property"}},[A._v('"nonce"')]),e("span",{pre:!0,attrs:{class:"token operator"}},[A._v(":")]),A._v(" "),e("span",{pre:!0,attrs:{class:"token string"}},[A._v('"0x0"')]),e("span",{pre:!0,attrs:{class:"token punctuation"}},[A._v(",")]),A._v("\n      "),e("span",{pre:!0,attrs:{class:"token property"}},[A._v('"maxFeePerGas"')]),e("span",{pre:!0,attrs:{class:"token operator"}},[A._v(":")]),A._v(" "),e("span",{pre:!0,attrs:{class:"token string"}},[A._v('"0x1234"')]),e("span",{pre:!0,attrs:{class:"token punctuation"}},[A._v(",")]),A._v("\n      "),e("span",{pre:!0,attrs:{class:"token property"}},[A._v('"maxPriorityFeePerGas"')]),e("span",{pre:!0,attrs:{class:"token operator"}},[A._v(":")]),A._v(" "),e("span",{pre:!0,attrs:{class:"token string"}},[A._v('"0x1234"')]),e("span",{pre:!0,attrs:{class:"token punctuation"}},[A._v(",")]),A._v("\n      "),e("span",{pre:!0,attrs:{class:"token property"}},[A._v('"gas"')]),e("span",{pre:!0,attrs:{class:"token operator"}},[A._v(":")]),A._v(" "),e("span",{pre:!0,attrs:{class:"token string"}},[A._v('"0x55555"')]),e("span",{pre:!0,attrs:{class:"token punctuation"}},[A._v(",")]),A._v("\n      "),e("span",{pre:!0,attrs:{class:"token property"}},[A._v('"to"')]),e("span",{pre:!0,attrs:{class:"token operator"}},[A._v(":")]),A._v(" "),e("span",{pre:!0,attrs:{class:"token string"}},[A._v('"0x07a565b7ed7d7a678680a4c162885bedbb695fe0"')]),e("span",{pre:!0,attrs:{class:"token punctuation"}},[A._v(",")]),A._v("\n      "),e("span",{pre:!0,attrs:{class:"token property"}},[A._v('"value"')]),e("span",{pre:!0,attrs:{class:"token operator"}},[A._v(":")]),A._v(" "),e("span",{pre:!0,attrs:{class:"token string"}},[A._v('"0x1234"')]),e("span",{pre:!0,attrs:{class:"token punctuation"}},[A._v(",")]),A._v("\n      "),e("span",{pre:!0,attrs:{class:"token property"}},[A._v('"input"')]),e("span",{pre:!0,attrs:{class:"token operator"}},[A._v(":")]),A._v(" "),e("span",{pre:!0,attrs:{class:"token string"}},[A._v('"0xabcd"')]),e("span",{pre:!0,attrs:{class:"token punctuation"}},[A._v(",")]),A._v("\n      "),e("span",{pre:!0,attrs:{class:"token property"}},[A._v('"v"')]),e("span",{pre:!0,attrs:{class:"token operator"}},[A._v(":")]),A._v(" "),e("span",{pre:!0,attrs:{class:"token string"}},[A._v('"0x26"')]),e("span",{pre:!0,attrs:{class:"token punctuation"}},[A._v(",")]),A._v("\n      "),e("span",{pre:!0,attrs:{class:"token property"}},[A._v('"r"')]),e("span",{pre:!0,attrs:{class:"token operator"}},[A._v(":")]),A._v(" "),e("span",{pre:!0,attrs:{class:"token string"}},[A._v('"0x223a7c9bcf5531c99be5ea7082183816eb20cfe0bbc322e97cc5c7f71ab8b20e"')]),e("span",{pre:!0,attrs:{class:"token punctuation"}},[A._v(",")]),A._v("\n      "),e("span",{pre:!0,attrs:{class:"token property"}},[A._v('"s"')]),e("span",{pre:!0,attrs:{class:"token operator"}},[A._v(":")]),A._v(" "),e("span",{pre:!0,attrs:{class:"token string"}},[A._v('"0x2aadee6b34b45bb15bc42d9c09de4a6754e7000908da72d48cc7704971491663"')]),e("span",{pre:!0,attrs:{class:"token punctuation"}},[A._v(",")]),A._v("\n      "),e("span",{pre:!0,attrs:{class:"token property"}},[A._v('"hash"')]),e("span",{pre:!0,attrs:{class:"token operator"}},[A._v(":")]),A._v(" "),e("span",{pre:!0,attrs:{class:"token string"}},[A._v('"0xeba2df809e7a612a0a0d444ccfa5c839624bdc00dd29e3340d46df3870f8a30e"')]),A._v("\n    "),e("span",{pre:!0,attrs:{class:"token punctuation"}},[A._v("}")]),A._v("\n  "),e("span",{pre:!0,attrs:{class:"token punctuation"}},[A._v("}")]),A._v("\n"),e("span",{pre:!0,attrs:{class:"token punctuation"}},[A._v("}")]),A._v("\n")])])])},function(){var A=this.$createElement,t=this._self._c||A;return t("ul",[t("li",[this._v("the "),t("code",[this._v("raw")]),this._v(" is the signed transaction in Recursive Length Prefix (RLP) encoded form")]),this._v(" "),t("li",[this._v("the "),t("code",[this._v("tx")]),this._v(" is the signed transaction in JSON form")])])},function(){var A=this.$createElement,t=this._self._c||A;return t("h3",{attrs:{id:"the-data-field"}},[t("a",{staticClass:"header-anchor",attrs:{href:"#the-data-field"}},[this._v("#")]),this._v(" The data field")])},function(){var A=this.$createElement,t=this._self._c||A;return t("div",{staticClass:"language- extra-class"},[t("pre",{pre:!0,attrs:{class:"language-text"}},[t("code",[this._v("0000000000000000000000004f6742badb049791cd9a37ea913f2bac38d01279\n000000000000000000000000000000000000000000000000000000003b0559f4\n")])])])},function(){var A=this.$createElement,t=this._self._c||A;return t("h2",{attrs:{id:"types-of-transactions"}},[t("a",{staticClass:"header-anchor",attrs:{href:"#types-of-transactions"}},[this._v("#")]),this._v(" Types of transactions")])},function(){var A=this.$createElement,t=this._self._c||A;return t("ul",[t("li",[this._v("Regular transactions: a transaction from one account to another.")]),this._v(" "),t("li",[this._v("Contract deployment transactions: a transaction without a 'to' address, where the data field is used for the contract code.")]),this._v(" "),t("li",[this._v("Execution of a contract: a transaction that interacts with a deployed smart contract. In this case, 'to' address is the smart contract address.")])])},function(){var A=this.$createElement,t=this._self._c||A;return t("h3",{attrs:{id:"on-gas"}},[t("a",{staticClass:"header-anchor",attrs:{href:"#on-gas"}},[this._v("#")]),this._v(" On gas")])},function(){var A=this.$createElement,t=this._self._c||A;return t("p",[this._v("So for Bob to send Alice 1 NULS at a "),t("code",[this._v("baseFeePerGas")]),this._v(" of 190 gwei and "),t("code",[this._v("maxPriorityFeePerGas")]),this._v(" of 10 gwei, Bob will need to pay the following fee:")])},function(){var A=this.$createElement,t=this._self._c||A;return t("div",{staticClass:"language- extra-class"},[t("pre",{pre:!0,attrs:{class:"language-text"}},[t("code",[this._v("(190 + 10) * 21000 = 4,200,000 gwei\n--or--\n0.0042 NULS\n")])])])},function(){var A=this.$createElement,t=this._self._c||A;return t("p",[this._v("Bob's account will be debited "),t("strong",[this._v("-1.0042 NULS")]),this._v(" (1 NULS for Alice + 0.0042 NULS in gas fees)")])},function(){var A=this.$createElement,t=this._self._c||A;return t("p",[this._v("Alice's account will be credited "),t("strong",[this._v("+1.0 NULS")])])},function(){var A=this.$createElement,t=this._self._c||A;return t("p",[this._v("The base fee will be burned "),t("strong",[this._v("-0.00399 NULS")])])},function(){var A=this.$createElement,t=this._self._c||A;return t("p",[this._v("Validator keeps the tip "),t("strong",[this._v("+0.000210 NULS")])])},function(){var A=this.$createElement,t=this._self._c||A;return t("h2",{attrs:{id:"transaction-lifecycle"}},[t("a",{staticClass:"header-anchor",attrs:{href:"#transaction-lifecycle"}},[this._v("#")]),this._v(" Transaction lifecycle")])},function(){var A=this,t=A.$createElement,e=A._self._c||t;return e("ol",[e("li",[A._v("Once you send a transaction, cryptography generates a transaction hash:\n"),e("code",[A._v("0x97d99bc7729211111a21b12c933c949d4f31684f1d6954ff477d0477538ff017")])]),A._v(" "),e("li",[A._v("The transaction is then broadcast to the network and included in a pool with lots of other transactions.")]),A._v(" "),e("li",[A._v('A validator must pick your transaction and include it in a block in order to verify the transaction and consider it "successful".')]),A._v(" "),e("li",[A._v('As time passes the block containing your transaction will be upgraded to "justified" then "finalized". These upgrades make it much\nmore certain that your transaction was successful and will never be altered. Once a block is "finalized" it could only ever be changed\nby an attack that would cost many billions of dollars.')])])},function(){var A=this.$createElement,t=this._self._c||A;return t("h2",{attrs:{id:"a-visual-demo"}},[t("a",{staticClass:"header-anchor",attrs:{href:"#a-visual-demo"}},[this._v("#")]),this._v(" A visual demo")])},function(){var A=this.$createElement,t=this._self._c||A;return t("h2",{attrs:{id:"typed-transaction-envelope"}},[t("a",{staticClass:"header-anchor",attrs:{href:"#typed-transaction-envelope"}},[this._v("#")]),this._v(" Typed Transaction Envelope")])},function(){var A=this.$createElement,t=this._self._c||A;return t("p",[t("code",[this._v("RLP([nonce, gasPrice, gasLimit, to, value, data, v, r, s])")])])},function(){var A=this.$createElement,t=this._self._c||A;return t("p",[t("code",[this._v("TransactionType || TransactionPayload")])])},function(){var A=this.$createElement,t=this._self._c||A;return t("ul",[t("li",[t("code",[this._v("TransactionType")]),this._v(" - a number between 0 and 0x7f, for a total of 128 possible transaction types.")]),this._v(" "),t("li",[t("code",[this._v("TransactionPayload")]),this._v(" - an arbitrary byte array defined by the transaction type.")])])},function(){var A=this.$createElement,t=this._self._c||A;return t("h2",{attrs:{id:"further-reading"}},[t("a",{staticClass:"header-anchor",attrs:{href:"#further-reading"}},[this._v("#")]),this._v(" Further reading")])},function(){var A=this.$createElement,t=this._self._c||A;return t("p",[t("em",[this._v("Know of a community resource that helped you? Edit this page and add it!")])])},function(){var A=this.$createElement,t=this._self._c||A;return t("h2",{attrs:{id:"related-topics"}},[t("a",{staticClass:"header-anchor",attrs:{href:"#related-topics"}},[this._v("#")]),this._v(" Related topics")])}],!1,null,null,null);t.default=s.exports}}]);