<!DOCTYPE html>
<html lang="zh">
  <head>
    <meta charset="utf-8">
    <meta name="viewport" content="width=device-width,initial-scale=1">
    <title>交易 |  </title>
    <meta name="description" content="ENULS交易 – 工作原理、数据结构以及如何通过应用发送。">
    <link rel="icon" href="/favicon.ico">
    
    <link rel="preload" href="/assets/css/0.styles.601feec8.css" as="style"><link rel="preload" href="/assets/js/app.1d9a068e.js" as="script"><link rel="preload" href="/assets/js/126.d0c2e6e8.js" as="script"><link rel="prefetch" href="/assets/js/10.f63f5855.js"><link rel="prefetch" href="/assets/js/100.5cc15548.js"><link rel="prefetch" href="/assets/js/101.e29c19da.js"><link rel="prefetch" href="/assets/js/102.2b30a812.js"><link rel="prefetch" href="/assets/js/103.310cd812.js"><link rel="prefetch" href="/assets/js/104.f63e4752.js"><link rel="prefetch" href="/assets/js/105.25b05069.js"><link rel="prefetch" href="/assets/js/106.1ab24f58.js"><link rel="prefetch" href="/assets/js/107.6dbc6aef.js"><link rel="prefetch" href="/assets/js/108.0cfad7ae.js"><link rel="prefetch" href="/assets/js/109.dfb37849.js"><link rel="prefetch" href="/assets/js/11.7172d40b.js"><link rel="prefetch" href="/assets/js/110.19fab29e.js"><link rel="prefetch" href="/assets/js/111.1a99e745.js"><link rel="prefetch" href="/assets/js/112.b72e4576.js"><link rel="prefetch" href="/assets/js/113.a7084922.js"><link rel="prefetch" href="/assets/js/114.e7a23bee.js"><link rel="prefetch" href="/assets/js/115.710a61d3.js"><link rel="prefetch" href="/assets/js/116.08648c07.js"><link rel="prefetch" href="/assets/js/117.21c25f12.js"><link rel="prefetch" href="/assets/js/118.63d05fce.js"><link rel="prefetch" href="/assets/js/119.14818791.js"><link rel="prefetch" href="/assets/js/12.0f8babd2.js"><link rel="prefetch" href="/assets/js/120.14bf3393.js"><link rel="prefetch" href="/assets/js/121.3317aa1f.js"><link rel="prefetch" href="/assets/js/122.fd073cb1.js"><link rel="prefetch" href="/assets/js/123.414908e5.js"><link rel="prefetch" href="/assets/js/124.89fc8c8c.js"><link rel="prefetch" href="/assets/js/125.56d86131.js"><link rel="prefetch" href="/assets/js/127.af02c109.js"><link rel="prefetch" href="/assets/js/128.e595c024.js"><link rel="prefetch" href="/assets/js/129.3cf72f29.js"><link rel="prefetch" href="/assets/js/13.7b532a08.js"><link rel="prefetch" href="/assets/js/130.18bd6cbf.js"><link rel="prefetch" href="/assets/js/131.228f6ce7.js"><link rel="prefetch" href="/assets/js/132.8feaeb5e.js"><link rel="prefetch" href="/assets/js/133.bb8efa5d.js"><link rel="prefetch" href="/assets/js/134.653f31f3.js"><link rel="prefetch" href="/assets/js/135.b3192814.js"><link rel="prefetch" href="/assets/js/136.ab9999be.js"><link rel="prefetch" href="/assets/js/137.5041575b.js"><link rel="prefetch" href="/assets/js/138.6bc0cfe3.js"><link rel="prefetch" href="/assets/js/139.4bff945b.js"><link rel="prefetch" href="/assets/js/14.f466acc2.js"><link rel="prefetch" href="/assets/js/140.c9c6368e.js"><link rel="prefetch" href="/assets/js/141.e4dd0a59.js"><link rel="prefetch" href="/assets/js/15.67e39e61.js"><link rel="prefetch" href="/assets/js/16.f50610cf.js"><link rel="prefetch" href="/assets/js/17.f2722f98.js"><link rel="prefetch" href="/assets/js/18.50506ca0.js"><link rel="prefetch" href="/assets/js/19.c83ee246.js"><link rel="prefetch" href="/assets/js/2.031f3d54.js"><link rel="prefetch" href="/assets/js/20.88ddbd1c.js"><link rel="prefetch" href="/assets/js/21.792f8efc.js"><link rel="prefetch" href="/assets/js/22.30008f61.js"><link rel="prefetch" href="/assets/js/23.3f297858.js"><link rel="prefetch" href="/assets/js/24.f60196ef.js"><link rel="prefetch" href="/assets/js/25.36c9da09.js"><link rel="prefetch" href="/assets/js/26.469e4201.js"><link rel="prefetch" href="/assets/js/27.660f3561.js"><link rel="prefetch" href="/assets/js/28.77b8d0ae.js"><link rel="prefetch" href="/assets/js/29.761f1315.js"><link rel="prefetch" href="/assets/js/3.a243d928.js"><link rel="prefetch" href="/assets/js/30.0d78fd34.js"><link rel="prefetch" href="/assets/js/31.455baee2.js"><link rel="prefetch" href="/assets/js/32.ee627427.js"><link rel="prefetch" href="/assets/js/33.10be327a.js"><link rel="prefetch" href="/assets/js/34.d0c06642.js"><link rel="prefetch" href="/assets/js/35.e103d33f.js"><link rel="prefetch" href="/assets/js/36.7d94d1e9.js"><link rel="prefetch" href="/assets/js/37.dfcea1fa.js"><link rel="prefetch" href="/assets/js/38.3faff686.js"><link rel="prefetch" href="/assets/js/39.3fee31fb.js"><link rel="prefetch" href="/assets/js/4.14f2cb74.js"><link rel="prefetch" href="/assets/js/40.64ebbb72.js"><link rel="prefetch" href="/assets/js/41.0caac018.js"><link rel="prefetch" href="/assets/js/42.58bdc92e.js"><link rel="prefetch" href="/assets/js/43.46a6c6ec.js"><link rel="prefetch" href="/assets/js/44.eb7c4e3f.js"><link rel="prefetch" href="/assets/js/45.8420eebd.js"><link rel="prefetch" href="/assets/js/46.3ffccd37.js"><link rel="prefetch" href="/assets/js/47.0dc8e60f.js"><link rel="prefetch" href="/assets/js/48.4a25340b.js"><link rel="prefetch" href="/assets/js/49.81251dda.js"><link rel="prefetch" href="/assets/js/5.f8fa80eb.js"><link rel="prefetch" href="/assets/js/50.7a68e1b2.js"><link rel="prefetch" href="/assets/js/51.810ace8e.js"><link rel="prefetch" href="/assets/js/52.3fb11e5b.js"><link rel="prefetch" href="/assets/js/53.51e1b163.js"><link rel="prefetch" href="/assets/js/54.a193919b.js"><link rel="prefetch" href="/assets/js/55.ed77a75a.js"><link rel="prefetch" href="/assets/js/56.cf8d783d.js"><link rel="prefetch" href="/assets/js/57.0c17175b.js"><link rel="prefetch" href="/assets/js/58.3ddb5f2e.js"><link rel="prefetch" href="/assets/js/59.68a213bb.js"><link rel="prefetch" href="/assets/js/6.00f18b55.js"><link rel="prefetch" href="/assets/js/60.a0636ebc.js"><link rel="prefetch" href="/assets/js/61.fc72f2e7.js"><link rel="prefetch" href="/assets/js/62.4fa897e2.js"><link rel="prefetch" href="/assets/js/63.2d20b2a2.js"><link rel="prefetch" href="/assets/js/64.d5daa534.js"><link rel="prefetch" href="/assets/js/65.594e30f7.js"><link rel="prefetch" href="/assets/js/66.a868f08c.js"><link rel="prefetch" href="/assets/js/67.611d69ab.js"><link rel="prefetch" href="/assets/js/68.2ecfeb2d.js"><link rel="prefetch" href="/assets/js/69.299a4679.js"><link rel="prefetch" href="/assets/js/7.5e22f1af.js"><link rel="prefetch" href="/assets/js/70.a218975d.js"><link rel="prefetch" href="/assets/js/71.ce42dcd6.js"><link rel="prefetch" href="/assets/js/72.492e12a9.js"><link rel="prefetch" href="/assets/js/73.bd7f9811.js"><link rel="prefetch" href="/assets/js/74.0afd81ce.js"><link rel="prefetch" href="/assets/js/75.e3619d1c.js"><link rel="prefetch" href="/assets/js/76.d88a3fc2.js"><link rel="prefetch" href="/assets/js/77.23c6aded.js"><link rel="prefetch" href="/assets/js/78.ce27c707.js"><link rel="prefetch" href="/assets/js/79.295b611d.js"><link rel="prefetch" href="/assets/js/8.c419f53a.js"><link rel="prefetch" href="/assets/js/80.c6e56c15.js"><link rel="prefetch" href="/assets/js/81.193b4eb8.js"><link rel="prefetch" href="/assets/js/82.06db58e6.js"><link rel="prefetch" href="/assets/js/83.02e73858.js"><link rel="prefetch" href="/assets/js/84.8f877bd4.js"><link rel="prefetch" href="/assets/js/85.0fc2a4d0.js"><link rel="prefetch" href="/assets/js/86.5e2bdddc.js"><link rel="prefetch" href="/assets/js/87.53785169.js"><link rel="prefetch" href="/assets/js/88.a4b3425d.js"><link rel="prefetch" href="/assets/js/89.69c6af62.js"><link rel="prefetch" href="/assets/js/9.9b98df55.js"><link rel="prefetch" href="/assets/js/90.9971bc5c.js"><link rel="prefetch" href="/assets/js/91.9177e845.js"><link rel="prefetch" href="/assets/js/92.157cfdf8.js"><link rel="prefetch" href="/assets/js/93.84f7c597.js"><link rel="prefetch" href="/assets/js/94.49e1adea.js"><link rel="prefetch" href="/assets/js/95.3724e1b1.js"><link rel="prefetch" href="/assets/js/96.771b5968.js"><link rel="prefetch" href="/assets/js/97.5d379dc9.js"><link rel="prefetch" href="/assets/js/98.3a005e2d.js"><link rel="prefetch" href="/assets/js/99.674ae270.js">
    <link rel="stylesheet" href="/assets/css/0.styles.601feec8.css">
  </head>
  <body>
    <div id="app" data-server-rendered="true"><div class="theme-container"><header class="navbar"><div class="sidebar-button"><svg xmlns="http://www.w3.org/2000/svg" aria-hidden="true" role="img" viewBox="0 0 448 512" class="icon"><path fill="currentColor" d="M436 124H12c-6.627 0-12-5.373-12-12V80c0-6.627 5.373-12 12-12h424c6.627 0 12 5.373 12 12v32c0 6.627-5.373 12-12 12zm0 160H12c-6.627 0-12-5.373-12-12v-32c0-6.627 5.373-12 12-12h424c6.627 0 12 5.373 12 12v32c0 6.627-5.373 12-12 12zm0 160H12c-6.627 0-12-5.373-12-12v-32c0-6.627 5.373-12 12-12h424c6.627 0 12 5.373 12 12v32c0 6.627-5.373 12-12 12z"></path></svg></div> <a href="/zh/" class="home-link router-link-active"><!----> <span class="site-name"> </span></a> <div class="links" style="max-width:nullpx;"><div class="search-box"><input aria-label="Search" autocomplete="off" spellcheck="false" value=""> <!----></div> <nav class="nav-links can-hide"><div class="nav-item"><a href="/zh/Guide/" class="nav-link">指南</a></div><div class="nav-item"><a href="/zh/Docs/" class="nav-link">开发</a></div><div class="nav-item"><a href="/zh/ENULS/" class="nav-link router-link-active">ENULS</a></div><div class="nav-item"><div class="dropdown-wrapper"><a class="dropdown-title"><span class="title">选择语言</span> <span class="arrow right"></span></a> <ul class="nav-dropdown" style="display:none;"><li class="dropdown-item"><!----> <a href="/ENULS/transactions/" class="nav-link">English</a></li><li class="dropdown-item"><!----> <a href="/zh/ENULS/transactions/" aria-current="page" class="nav-link router-link-exact-active router-link-active">简体中文</a></li></ul></div></div> <a href="https://github.com/nuls-io/devsite/" target="_blank" rel="noopener noreferrer" class="repo-link">
    GitHub
    <svg xmlns="http://www.w3.org/2000/svg" aria-hidden="true" x="0px" y="0px" viewBox="0 0 100 100" width="15" height="15" class="icon outbound"><path fill="currentColor" d="M18.8,85.1h56l0,0c2.2,0,4-1.8,4-4v-32h-8v28h-48v-48h28v-8h-32l0,0c-2.2,0-4,1.8-4,4v56C14.8,83.3,16.6,85.1,18.8,85.1z"></path> <polygon fill="currentColor" points="45.7,48.7 51.3,54.3 77.2,28.5 77.2,37.2 85.2,37.2 85.2,14.9 62.8,14.9 62.8,22.9 71.5,22.9"></polygon></svg></a></nav></div></header> <div class="sidebar-mask"></div> <div class="sidebar"><nav class="nav-links"><div class="nav-item"><a href="/zh/Guide/" class="nav-link">指南</a></div><div class="nav-item"><a href="/zh/Docs/" class="nav-link">开发</a></div><div class="nav-item"><a href="/zh/ENULS/" class="nav-link router-link-active">ENULS</a></div><div class="nav-item"><div class="dropdown-wrapper"><a class="dropdown-title"><span class="title">选择语言</span> <span class="arrow right"></span></a> <ul class="nav-dropdown" style="display:none;"><li class="dropdown-item"><!----> <a href="/ENULS/transactions/" class="nav-link">English</a></li><li class="dropdown-item"><!----> <a href="/zh/ENULS/transactions/" aria-current="page" class="nav-link router-link-exact-active router-link-active">简体中文</a></li></ul></div></div> <a href="https://github.com/nuls-io/devsite/" target="_blank" rel="noopener noreferrer" class="repo-link">
    GitHub
    <svg xmlns="http://www.w3.org/2000/svg" aria-hidden="true" x="0px" y="0px" viewBox="0 0 100 100" width="15" height="15" class="icon outbound"><path fill="currentColor" d="M18.8,85.1h56l0,0c2.2,0,4-1.8,4-4v-32h-8v28h-48v-48h28v-8h-32l0,0c-2.2,0-4,1.8-4,4v56C14.8,83.3,16.6,85.1,18.8,85.1z"></path> <polygon fill="currentColor" points="45.7,48.7 51.3,54.3 77.2,28.5 77.2,37.2 85.2,37.2 85.2,14.9 62.8,14.9 62.8,22.9 71.5,22.9"></polygon></svg></a></nav>  <ul class="sidebar-links"><li><div class="sidebar-group first"><p class="sidebar-heading open"><span>介绍</span> <!----></p> <ul class="sidebar-group-items"><li><a href="/zh/ENULS/intro/" class="sidebar-link">什么是区块链？</a></li><li><a href="/zh/ENULS/accounts/" class="sidebar-link">ENULS帐户</a></li><li><a href="/zh/ENULS/blocks/" class="sidebar-link">区块</a></li><li><a href="/zh/ENULS/transactions/" aria-current="page" class="active sidebar-link">交易</a><ul class="sidebar-sub-headers"><li class="sidebar-sub-header"><a href="/zh/ENULS/transactions/#前提条件" class="sidebar-link">前提条件</a></li><li class="sidebar-sub-header"><a href="/zh/ENULS/transactions/#什么是交易？" class="sidebar-link">什么是交易？</a><ul class="sidebar-sub-headers"><li class="sidebar-sub-header"><a href="/zh/ENULS/transactions/#data字段" class="sidebar-link">data字段</a></li></ul></li><li class="sidebar-sub-header"><a href="/zh/ENULS/transactions/#交易类型" class="sidebar-link">交易类型</a><ul class="sidebar-sub-headers"><li class="sidebar-sub-header"><a href="/zh/ENULS/transactions/#关于燃料" class="sidebar-link">关于燃料</a></li></ul></li><li class="sidebar-sub-header"><a href="/zh/ENULS/transactions/#交易生命周期" class="sidebar-link">交易生命周期</a></li><li class="sidebar-sub-header"><a href="/zh/ENULS/transactions/#视频演示" class="sidebar-link">视频演示</a></li><li class="sidebar-sub-header"><a href="/zh/ENULS/transactions/#typed-transaction-envelope-交易" class="sidebar-link">Typed Transaction Envelope 交易</a></li><li class="sidebar-sub-header"><a href="/zh/ENULS/transactions/#相关主题" class="sidebar-link">相关主题</a></li></ul></li><li><a href="/zh/ENULS/evm/" class="sidebar-link">ENULS虚拟机 (EVM)</a></li><li><a href="/zh/ENULS/gas/" class="sidebar-link">Gas 和费用</a></li><li><a href="/zh/ENULS/networks/" class="sidebar-link">网络</a></li></ul></div></li><li><div class="sidebar-group"><p class="sidebar-heading"><span>节点和客户端</span> <!----></p> <ul class="sidebar-group-items"><li><a href="/zh/ENULS/nodes-and-clients/quickstart/" class="sidebar-link">快速开始，启动 ENULS 节点</a></li><li><a href="/zh/ENULS/nodes-and-clients/" class="sidebar-link">节点和客户端</a></li><li><a href="/zh/ENULS/nodes-and-clients/run-a-node/" class="sidebar-link">启动 ENULS 节点</a></li></ul></div></li></ul> </div> <div class="page"> <div class="content"><p>交易是由帐户发出，带密码学签名的指令。 帐户将发起交易以更新ENULS网络的状态。 最简单的交易是将 NULS 从一个账户转到另一个帐户。</p> <h2 id="前提条件"><a href="#前提条件" class="header-anchor">#</a> 前提条件</h2> <p>为了帮助您更好地理解这个页面，我们建议您先阅读<a href="/zh/ENULS/accounts/">账户</a>和我们的<a href="/zh/ENULS/" class="router-link-active">ENULS简介</a>。</p> <h2 id="什么是交易？"><a href="#什么是交易？" class="header-anchor">#</a> 什么是交易？</h2> <p>ENULS交易是指由外部持有账户发起的行动，换句话说，是指由人管理而不是智能合约管理的账户。 例如，如果 Bob 向 Alice 发送 1 NULS，则 Bob 的帐户必须减少 1 NULS，而 Alice 的账户必须增加 1 NULS。 交易会造成状态的改变。</p> <p>改变 EVM 状态的交易需要广播到整个网络。 任何节点都可以广播在ENULS虚拟机上执行交易的请求；此后，验证者将执行交易并将由此产生的状态变化传播到网络的其他部分。</p> <p>交易需要付费并且必须包含在一个有效区块中。 为了使本概述更加简洁，我们将另行介绍燃料费和验证。</p> <p>所提交的交易包括下列信息：</p> <ul><li><code>recipient</code> – 接收地址（如果为一个外部持有的帐户，交易将传输值。 如果为合约帐户，交易将执行合约代码）</li> <li><code>signature</code> – 发送者的标识符。 当通过发送者的私钥签名交易来确保发送者已授权此交易时，生成此签名。</li> <li><code>随机数</code> - 一个连续的递增计数器，表示帐户中的交易编号。</li> <li><code>value</code> – 发送人向接收人转移的NULS金额（以NULS的一种面值 WEI 为单位）</li> <li><code>data</code> – 可包括任意数据的可选字段</li> <li><code>gasLimit</code> – 交易可以消耗的最大数量的燃料单位。 燃料单位代表计算步骤</li> <li><code>maxPriorityFeePerGas</code> - 作为验证者小费包含的最大燃料数量</li> <li><code>maxFeePerGas</code> - 愿意为交易支付的最大燃料数量（包括 <code>baseFeePerGas</code> 和 <code>maxPriorityFeePerGas</code>）</li></ul> <p>燃料是指验证者处理交易所需的计算。 用户必须为此计算支付费用。 <code>gasLimit</code> 和 <code>maxPriorityFeePerGas</code> 决定支付给验证者的最高交易费。 <a href="/zh/ENULS/gas/">关于燃料的更多信息</a>。</p> <p>交易对象看起来像这样：</p> <div class="language-js extra-class"><pre class="language-js"><code><span class="token punctuation">{</span>
  <span class="token keyword">from</span><span class="token operator">:</span> <span class="token string">&quot;0xEA674fdDe714fd979de3EdF0F56AA9716B898ec8&quot;</span><span class="token punctuation">,</span>
  to<span class="token operator">:</span> <span class="token string">&quot;0xac03bb73b6a9e108530aff4df5077c2b3d481e5a&quot;</span><span class="token punctuation">,</span>
  gasLimit<span class="token operator">:</span> <span class="token string">&quot;21000&quot;</span><span class="token punctuation">,</span>
  maxFeePerGas<span class="token operator">:</span> <span class="token string">&quot;300&quot;</span>
  maxPriorityFeePerGas<span class="token operator">:</span> <span class="token string">&quot;10&quot;</span>
  nonce<span class="token operator">:</span> <span class="token string">&quot;0&quot;</span><span class="token punctuation">,</span>
  value<span class="token operator">:</span> <span class="token string">&quot;10000000000&quot;</span><span class="token punctuation">,</span>
<span class="token punctuation">}</span>
</code></pre></div><p>但交易对象需要使用发送者的私钥签名。 这证明交易只可能来自发送者，而不是欺诈。</p> <p>GNULS 这样的ENULS客户端将处理此签名过程。</p> <p>示例 <a href="https://NULS.wiki/json-rpc/API" target="_blank" rel="noopener noreferrer">JSON-RPC<svg xmlns="http://www.w3.org/2000/svg" aria-hidden="true" x="0px" y="0px" viewBox="0 0 100 100" width="15" height="15" class="icon outbound"><path fill="currentColor" d="M18.8,85.1h56l0,0c2.2,0,4-1.8,4-4v-32h-8v28h-48v-48h28v-8h-32l0,0c-2.2,0-4,1.8-4,4v56C14.8,83.3,16.6,85.1,18.8,85.1z"></path> <polygon fill="currentColor" points="45.7,48.7 51.3,54.3 77.2,28.5 77.2,37.2 85.2,37.2 85.2,14.9 62.8,14.9 62.8,22.9 71.5,22.9"></polygon></svg></a> 调用：</p> <div class="language-json extra-class"><pre class="language-json"><code><span class="token punctuation">{</span>
  <span class="token property">&quot;id&quot;</span><span class="token operator">:</span> <span class="token number">2</span><span class="token punctuation">,</span>
  <span class="token property">&quot;jsonrpc&quot;</span><span class="token operator">:</span> <span class="token string">&quot;2.0&quot;</span><span class="token punctuation">,</span>
  <span class="token property">&quot;mNULSod&quot;</span><span class="token operator">:</span> <span class="token string">&quot;account_signTransaction&quot;</span><span class="token punctuation">,</span>
  <span class="token property">&quot;params&quot;</span><span class="token operator">:</span> <span class="token punctuation">[</span>
    <span class="token punctuation">{</span>
      <span class="token property">&quot;from&quot;</span><span class="token operator">:</span> <span class="token string">&quot;0x1923f626bb8dc025849e00f99c25fe2b2f7fb0db&quot;</span><span class="token punctuation">,</span>
      <span class="token property">&quot;gas&quot;</span><span class="token operator">:</span> <span class="token string">&quot;0x55555&quot;</span><span class="token punctuation">,</span>
      <span class="token property">&quot;maxFeePerGas&quot;</span><span class="token operator">:</span> <span class="token string">&quot;0x1234&quot;</span><span class="token punctuation">,</span>
      <span class="token property">&quot;maxPriorityFeePerGas&quot;</span><span class="token operator">:</span> <span class="token string">&quot;0x1234&quot;</span><span class="token punctuation">,</span>
      <span class="token property">&quot;input&quot;</span><span class="token operator">:</span> <span class="token string">&quot;0xabcd&quot;</span><span class="token punctuation">,</span>
      <span class="token property">&quot;nonce&quot;</span><span class="token operator">:</span> <span class="token string">&quot;0x0&quot;</span><span class="token punctuation">,</span>
      <span class="token property">&quot;to&quot;</span><span class="token operator">:</span> <span class="token string">&quot;0x07a565b7ed7d7a678680a4c162885bedbb695fe0&quot;</span><span class="token punctuation">,</span>
      <span class="token property">&quot;value&quot;</span><span class="token operator">:</span> <span class="token string">&quot;0x1234&quot;</span>
    <span class="token punctuation">}</span>
  <span class="token punctuation">]</span>
<span class="token punctuation">}</span>
</code></pre></div><p>示例响应：</p> <div class="language-json extra-class"><pre class="language-json"><code><span class="token punctuation">{</span>
  <span class="token property">&quot;jsonrpc&quot;</span><span class="token operator">:</span> <span class="token string">&quot;2.0&quot;</span><span class="token punctuation">,</span>
  <span class="token property">&quot;id&quot;</span><span class="token operator">:</span> <span class="token number">2</span><span class="token punctuation">,</span>
  <span class="token property">&quot;result&quot;</span><span class="token operator">:</span> <span class="token punctuation">{</span>
    <span class="token property">&quot;raw&quot;</span><span class="token operator">:</span> <span class="token string">&quot;0xf88380018203339407a565b7ed7d7a678680a4c162885bedbb695fe080a44401a6e4000000000000000000000000000000000000000000000000000000000000001226a0223a7c9bcf5531c99be5ea7082183816eb20cfe0bbc322e97cc5c7f71ab8b20ea02aadee6b34b45bb15bc42d9c09de4a6754e7000908da72d48cc7704971491663&quot;</span><span class="token punctuation">,</span>
    <span class="token property">&quot;tx&quot;</span><span class="token operator">:</span> <span class="token punctuation">{</span>
      <span class="token property">&quot;nonce&quot;</span><span class="token operator">:</span> <span class="token string">&quot;0x0&quot;</span><span class="token punctuation">,</span>
      <span class="token property">&quot;maxFeePerGas&quot;</span><span class="token operator">:</span> <span class="token string">&quot;0x1234&quot;</span><span class="token punctuation">,</span>
      <span class="token property">&quot;maxPriorityFeePerGas&quot;</span><span class="token operator">:</span> <span class="token string">&quot;0x1234&quot;</span><span class="token punctuation">,</span>
      <span class="token property">&quot;gas&quot;</span><span class="token operator">:</span> <span class="token string">&quot;0x55555&quot;</span><span class="token punctuation">,</span>
      <span class="token property">&quot;to&quot;</span><span class="token operator">:</span> <span class="token string">&quot;0x07a565b7ed7d7a678680a4c162885bedbb695fe0&quot;</span><span class="token punctuation">,</span>
      <span class="token property">&quot;value&quot;</span><span class="token operator">:</span> <span class="token string">&quot;0x1234&quot;</span><span class="token punctuation">,</span>
      <span class="token property">&quot;input&quot;</span><span class="token operator">:</span> <span class="token string">&quot;0xabcd&quot;</span><span class="token punctuation">,</span>
      <span class="token property">&quot;v&quot;</span><span class="token operator">:</span> <span class="token string">&quot;0x26&quot;</span><span class="token punctuation">,</span>
      <span class="token property">&quot;r&quot;</span><span class="token operator">:</span> <span class="token string">&quot;0x223a7c9bcf5531c99be5ea7082183816eb20cfe0bbc322e97cc5c7f71ab8b20e&quot;</span><span class="token punctuation">,</span>
      <span class="token property">&quot;s&quot;</span><span class="token operator">:</span> <span class="token string">&quot;0x2aadee6b34b45bb15bc42d9c09de4a6754e7000908da72d48cc7704971491663&quot;</span><span class="token punctuation">,</span>
      <span class="token property">&quot;hash&quot;</span><span class="token operator">:</span> <span class="token string">&quot;0xeba2df809e7a612a0a0d444ccfa5c839624bdc00dd29e3340d46df3870f8a30e&quot;</span>
    <span class="token punctuation">}</span>
  <span class="token punctuation">}</span>
<span class="token punctuation">}</span>
</code></pre></div><ul><li><code>raw</code> 是已签名交易的 RLP（Recursive Length Prefix）编码形式。</li> <li><code>tx</code> 是已签名交易的 JSON 形式。</li></ul> <p>如有签名哈希，可通过加密技术证明交易来自发送者并提交网络。</p> <h3 id="data字段"><a href="#data字段" class="header-anchor">#</a> <code>data</code>字段</h3> <p>绝大多数交易都是从外部所有的帐户访问合约。 大多数合约用 Solidity 语言编写，并根据<a href="/glossary/#abi">应用程序二进制接口 (ABI)</a> 解释其<code>data</code>字段。</p> <p>前四个字节使用函数名称和参数的哈希指定要调用的函数。 有时可以使用<a href="https://www.4byte.directory/signatures/" target="_blank" rel="noopener noreferrer">本数据库<svg xmlns="http://www.w3.org/2000/svg" aria-hidden="true" x="0px" y="0px" viewBox="0 0 100 100" width="15" height="15" class="icon outbound"><path fill="currentColor" d="M18.8,85.1h56l0,0c2.2,0,4-1.8,4-4v-32h-8v28h-48v-48h28v-8h-32l0,0c-2.2,0-4,1.8-4,4v56C14.8,83.3,16.6,85.1,18.8,85.1z"></path> <polygon fill="currentColor" points="45.7,48.7 51.3,54.3 77.2,28.5 77.2,37.2 85.2,37.2 85.2,14.9 62.8,14.9 62.8,22.9 71.5,22.9"></polygon></svg></a>根据选择器识别函数。</p> <p>调用数据的其余部分是参数，<a href="https://docs.soliditylang.org/en/latest/abi-spec.html#formal-specification-of-the-encoding" target="_blank" rel="noopener noreferrer">按照应用程序二进制接口规范中的规定进行编码<svg xmlns="http://www.w3.org/2000/svg" aria-hidden="true" x="0px" y="0px" viewBox="0 0 100 100" width="15" height="15" class="icon outbound"><path fill="currentColor" d="M18.8,85.1h56l0,0c2.2,0,4-1.8,4-4v-32h-8v28h-48v-48h28v-8h-32l0,0c-2.2,0-4,1.8-4,4v56C14.8,83.3,16.6,85.1,18.8,85.1z"></path> <polygon fill="currentColor" points="45.7,48.7 51.3,54.3 77.2,28.5 77.2,37.2 85.2,37.2 85.2,14.9 62.8,14.9 62.8,22.9 71.5,22.9"></polygon></svg></a>。</p> <p>例如，我们来看一下<a href="https://NULSerscan.io/tx/0xd0dcbe007569fcfa1902dae0ab8b4e078efe42e231786312289b1eee5590f6a1" target="_blank" rel="noopener noreferrer">这笔交易<svg xmlns="http://www.w3.org/2000/svg" aria-hidden="true" x="0px" y="0px" viewBox="0 0 100 100" width="15" height="15" class="icon outbound"><path fill="currentColor" d="M18.8,85.1h56l0,0c2.2,0,4-1.8,4-4v-32h-8v28h-48v-48h28v-8h-32l0,0c-2.2,0-4,1.8-4,4v56C14.8,83.3,16.6,85.1,18.8,85.1z"></path> <polygon fill="currentColor" points="45.7,48.7 51.3,54.3 77.2,28.5 77.2,37.2 85.2,37.2 85.2,14.9 62.8,14.9 62.8,22.9 71.5,22.9"></polygon></svg></a>。 使用 **Click to see More（单击查看更多）**查看调用数据。</p> <p>函数选择器是 <code>0xa9059cbb</code>。 有几个<a href="https://www.4byte.directory/signatures/?bytes4_signature=0xa9059cbb" target="_blank" rel="noopener noreferrer">具有此签名的已知函数<svg xmlns="http://www.w3.org/2000/svg" aria-hidden="true" x="0px" y="0px" viewBox="0 0 100 100" width="15" height="15" class="icon outbound"><path fill="currentColor" d="M18.8,85.1h56l0,0c2.2,0,4-1.8,4-4v-32h-8v28h-48v-48h28v-8h-32l0,0c-2.2,0-4,1.8-4,4v56C14.8,83.3,16.6,85.1,18.8,85.1z"></path> <polygon fill="currentColor" points="45.7,48.7 51.3,54.3 77.2,28.5 77.2,37.2 85.2,37.2 85.2,14.9 62.8,14.9 62.8,22.9 71.5,22.9"></polygon></svg></a>。 本例中<a href="https://NULSerscan.io/address/0xa0b86991c6218b36c1d19d4a2e9eb0ce3606eb48#code" target="_blank" rel="noopener noreferrer">合约源代码<svg xmlns="http://www.w3.org/2000/svg" aria-hidden="true" x="0px" y="0px" viewBox="0 0 100 100" width="15" height="15" class="icon outbound"><path fill="currentColor" d="M18.8,85.1h56l0,0c2.2,0,4-1.8,4-4v-32h-8v28h-48v-48h28v-8h-32l0,0c-2.2,0-4,1.8-4,4v56C14.8,83.3,16.6,85.1,18.8,85.1z"></path> <polygon fill="currentColor" points="45.7,48.7 51.3,54.3 77.2,28.5 77.2,37.2 85.2,37.2 85.2,14.9 62.8,14.9 62.8,22.9 71.5,22.9"></polygon></svg></a>已经上传到 NULSerscan，所以我们知道该函数是 <code>transfer(address, uint256)</code>。</p> <p>其余数据如下：</p> <div class="language- extra-class"><pre class="language-text"><code>0000000000000000000000004f6742badb049791cd9a37ea913f2bac38d01279
000000000000000000000000000000000000000000000000000000003b0559f4
</code></pre></div><p>根据应用程序二进制接口规范，整型值（例如地址，它是 20 字节整型）在应用程序二进制接口中显示为 32 字节的字，前面用零填充。 所以我们知道 <code>to</code> 地址是 <a href="https://NULSerscan.io/address/0x4f6742badb049791cd9a37ea913f2bac38d01279" target="_blank" rel="noopener noreferrer"><code>4f6742badb049791cd9a37ea913f2bac38d01279</code><svg xmlns="http://www.w3.org/2000/svg" aria-hidden="true" x="0px" y="0px" viewBox="0 0 100 100" width="15" height="15" class="icon outbound"><path fill="currentColor" d="M18.8,85.1h56l0,0c2.2,0,4-1.8,4-4v-32h-8v28h-48v-48h28v-8h-32l0,0c-2.2,0-4,1.8-4,4v56C14.8,83.3,16.6,85.1,18.8,85.1z"></path> <polygon fill="currentColor" points="45.7,48.7 51.3,54.3 77.2,28.5 77.2,37.2 85.2,37.2 85.2,14.9 62.8,14.9 62.8,22.9 71.5,22.9"></polygon></svg></a>。 <code>value</code> 是 0x3b0559f4 = 990206452。</p> <h2 id="交易类型"><a href="#交易类型" class="header-anchor">#</a> 交易类型</h2> <p>ENULS有几种不同类型的交易：</p> <ul><li>常规交易：从一个帐户到另一个帐户的交易。</li> <li>合约部署交易：没有“to”地址的交易，数据字段用于合约代码。</li> <li>执行合约：与已部署的智能合约进行交互的交易。 在这种情况下，“to”地址是智能合约地址。</li></ul> <h3 id="关于燃料"><a href="#关于燃料" class="header-anchor">#</a> 关于燃料</h3> <p>如上所述，执行交易需要耗费<a href="/zh/ENULS/gas/">燃料</a>。 简单的转账交易需要 21000 单位燃料。</p> <p>因此，如果 Bob 要在 <code>baseFeePerGas</code> 为 190 Gwei 且 <code>maxPriorityFeePerGas</code> 为 10 Gwei 时给 Alice 发送一个NULS，Bob 需要支付以下费用：</p> <div class="language- extra-class"><pre class="language-text"><code>(190 + 10) * 21000 = 4,200,000 gwei
--或--
0.0042 NULS
</code></pre></div><p>Bob 的帐户将会扣除 <strong>1.0042 个NULS</strong>（1 个NULS给 Alice，0.0042 个NULS作为燃料费用）</p> <p>Alice 的帐户将会增加 <strong>+1.0 NULS</strong></p> <p>基础费将会燃烧 <strong>-0.00399 NULS</strong></p> <p>验证者获得 <strong>0.000210 个NULS</strong>的小费</p> <p>任何智能合约交互也需要燃料。</p> <p>任何未用于交易的燃料都会退还给用户帐户。</p> <h2 id="交易生命周期"><a href="#交易生命周期" class="header-anchor">#</a> 交易生命周期</h2> <p>交易提交后，就会发生以下情况：</p> <ol><li>一旦您发送交易，加密法生成交易哈希： <code>0x97d99bc7729211111a21b12c933c949d4f31684f1d6954ff477d0477538ff017</code></li> <li>然后将该交易转播到网络，并且与大量其他交易一起包含在一个集合中。</li> <li>验证者必须选择你的交易并将它包含在一个区块中，以便验证交易并认为它“成功”。</li> <li>随着时间的流逝，包含你的交易的区块将升级成“合理”状态，然后变成“最后确定”状态。 通过这些升级，可以进一步确定 你的交易已经成功并将无法更改。 区块一旦“最终确定”，只能通过耗费数十亿美元 的攻击来更改。</li></ol> <h2 id="视频演示"><a href="#视频演示" class="header-anchor">#</a> 视频演示</h2> <p>跟随 Austin 了解交易、燃料和挖矿。</p> <YouTube id="er-0ihqFQB0"></YouTube> <h2 id="typed-transaction-envelope-交易"><a href="#typed-transaction-envelope-交易" class="header-anchor">#</a> Typed Transaction Envelope 交易</h2> <p>ENULS最初有一种交易形式。 每笔交易都包含 Nonce、燃料价格、燃料限制、目的地地址、价值、数据、v、r 和 s。 这些字段采用 RLP 编码，如下所示：</p> <p><code>RLP([nonce, gasPrice, gasLimit, to, value, data, v, r, s])</code></p> <p>ENULS经过演变，已经支持多种类型的交易，从而能够在不影响传统交易形式的情况下实现访问列表和 <a href="https://eips.NULSereum.org/EIPS/eip-1559" target="_blank" rel="noopener noreferrer">EIP-1559<svg xmlns="http://www.w3.org/2000/svg" aria-hidden="true" x="0px" y="0px" viewBox="0 0 100 100" width="15" height="15" class="icon outbound"><path fill="currentColor" d="M18.8,85.1h56l0,0c2.2,0,4-1.8,4-4v-32h-8v28h-48v-48h28v-8h-32l0,0c-2.2,0-4,1.8-4,4v56C14.8,83.3,16.6,85.1,18.8,85.1z"></path> <polygon fill="currentColor" points="45.7,48.7 51.3,54.3 77.2,28.5 77.2,37.2 85.2,37.2 85.2,14.9 62.8,14.9 62.8,22.9 71.5,22.9"></polygon></svg></a> 等新功能。</p> <p><a href="https://eips.NULSereum.org/EIPS/eip-2718" target="_blank" rel="noopener noreferrer">EIP-2718：类型化交易封套<svg xmlns="http://www.w3.org/2000/svg" aria-hidden="true" x="0px" y="0px" viewBox="0 0 100 100" width="15" height="15" class="icon outbound"><path fill="currentColor" d="M18.8,85.1h56l0,0c2.2,0,4-1.8,4-4v-32h-8v28h-48v-48h28v-8h-32l0,0c-2.2,0-4,1.8-4,4v56C14.8,83.3,16.6,85.1,18.8,85.1z"></path> <polygon fill="currentColor" points="45.7,48.7 51.3,54.3 77.2,28.5 77.2,37.2 85.2,37.2 85.2,14.9 62.8,14.9 62.8,22.9 71.5,22.9"></polygon></svg></a>定义了交易类型，是未来交易类型的“封套”。</p> <p>EIP-2718 是用于类型化交易的新通用封套。 在新标准中，交易被解释为：</p> <p><code>TransactionType || TransactionPayload</code></p> <p>其中，字段定义如下：</p> <ul><li><code>TransactionType</code> - 一个在 0 到 0x7f 之间的数字，总共为 128 种可能的交易类型。</li> <li><code>TransactionPayload</code> - 由交易类型定义的任意字节数组。</li></ul> <h2 id="相关主题"><a href="#相关主题" class="header-anchor">#</a> 相关主题</h2> <ul><li><a href="/zh/ENULS/accounts/">帐户</a></li> <li><a href="/zh/ENULS/evm/">ENULS虚拟机 (EVM)</a></li> <li><a href="/zh/ENULS/gas/">燃料</a></li></ul></div> <div class="page-edit"><div class="edit-link"><a href="https://github.com/nuls-io/devsite/edit/master/docs/zh/ENULS/transactions/README.md" target="_blank" rel="noopener noreferrer">在 GitHub 上编辑此页</a> <svg xmlns="http://www.w3.org/2000/svg" aria-hidden="true" x="0px" y="0px" viewBox="0 0 100 100" width="15" height="15" class="icon outbound"><path fill="currentColor" d="M18.8,85.1h56l0,0c2.2,0,4-1.8,4-4v-32h-8v28h-48v-48h28v-8h-32l0,0c-2.2,0-4,1.8-4,4v56C14.8,83.3,16.6,85.1,18.8,85.1z"></path> <polygon fill="currentColor" points="45.7,48.7 51.3,54.3 77.2,28.5 77.2,37.2 85.2,37.2 85.2,14.9 62.8,14.9 62.8,22.9 71.5,22.9"></polygon></svg></div> <div class="last-updated"><span class="prefix">Last Updated: </span> <span class="time">2023/3/1 上午9:09:00</span></div></div> <div class="page-nav"><p class="inner"><span class="prev">
        ←
        <a href="/zh/ENULS/blocks/" class="prev">
          区块
        </a></span> <span class="next"><a href="/zh/ENULS/evm/">
          ENULS虚拟机 (EVM)
        </a>
        →
      </span></p></div> </div> <!----></div></div>
    <script src="/assets/js/app.1d9a068e.js" defer></script><script src="/assets/js/126.d0c2e6e8.js" defer></script>
  </body>
</html>
