<!DOCTYPE html>
<html lang="zh">
  <head>
    <meta charset="utf-8">
    <meta name="viewport" content="width=device-width,initial-scale=1">
    <title>交易 | 文档</title>
    <meta name="generator" content="VuePress 1.9.10">
    <link rel="icon" href="/favicon.ico">
    <meta name="description" content="ENULS交易 – 工作原理、数据结构以及如何通过应用发送。">
    <meta name="theme-color" content="#A8D5FF">
    
    <link rel="preload" href="/assets/css/0.styles.c0387eb2.css" as="style"><link rel="preload" href="/assets/js/app.0bafe896.js" as="script"><link rel="preload" href="/assets/js/2.6c3a80b8.js" as="script"><link rel="preload" href="/assets/js/1.22a4e5b0.js" as="script"><link rel="preload" href="/assets/js/136.5cc7c540.js" as="script"><link rel="prefetch" href="/assets/js/10.18a9796f.js"><link rel="prefetch" href="/assets/js/100.c6dcc4ee.js"><link rel="prefetch" href="/assets/js/101.7d7ebb68.js"><link rel="prefetch" href="/assets/js/102.58666c13.js"><link rel="prefetch" href="/assets/js/103.b682e489.js"><link rel="prefetch" href="/assets/js/104.24bacb02.js"><link rel="prefetch" href="/assets/js/105.3743813e.js"><link rel="prefetch" href="/assets/js/106.73fa77cb.js"><link rel="prefetch" href="/assets/js/107.f42da1f4.js"><link rel="prefetch" href="/assets/js/108.0282c3bd.js"><link rel="prefetch" href="/assets/js/109.ab04f47a.js"><link rel="prefetch" href="/assets/js/11.cb4cdfd8.js"><link rel="prefetch" href="/assets/js/110.a7414102.js"><link rel="prefetch" href="/assets/js/111.c99ec821.js"><link rel="prefetch" href="/assets/js/112.edf30d53.js"><link rel="prefetch" href="/assets/js/113.437a657d.js"><link rel="prefetch" href="/assets/js/114.ca376ebb.js"><link rel="prefetch" href="/assets/js/115.411f17d8.js"><link rel="prefetch" href="/assets/js/116.0be2757f.js"><link rel="prefetch" href="/assets/js/117.ed69432a.js"><link rel="prefetch" href="/assets/js/118.4f7585a0.js"><link rel="prefetch" href="/assets/js/119.bc60f714.js"><link rel="prefetch" href="/assets/js/12.e402ed1a.js"><link rel="prefetch" href="/assets/js/120.79d9e821.js"><link rel="prefetch" href="/assets/js/121.13efa6ca.js"><link rel="prefetch" href="/assets/js/122.767a3b55.js"><link rel="prefetch" href="/assets/js/123.8fe931f3.js"><link rel="prefetch" href="/assets/js/124.6adbbadd.js"><link rel="prefetch" href="/assets/js/125.626cef62.js"><link rel="prefetch" href="/assets/js/126.3dda9445.js"><link rel="prefetch" href="/assets/js/127.d62c90cb.js"><link rel="prefetch" href="/assets/js/128.c961670a.js"><link rel="prefetch" href="/assets/js/129.04de186a.js"><link rel="prefetch" href="/assets/js/13.847fb38c.js"><link rel="prefetch" href="/assets/js/130.e922ba04.js"><link rel="prefetch" href="/assets/js/131.e463809b.js"><link rel="prefetch" href="/assets/js/132.ddd02961.js"><link rel="prefetch" href="/assets/js/133.c0020aa7.js"><link rel="prefetch" href="/assets/js/134.a3f3bb32.js"><link rel="prefetch" href="/assets/js/135.8e4807f7.js"><link rel="prefetch" href="/assets/js/137.9353bd9b.js"><link rel="prefetch" href="/assets/js/138.5e65b123.js"><link rel="prefetch" href="/assets/js/139.bdd7d1bc.js"><link rel="prefetch" href="/assets/js/14.0ebe191f.js"><link rel="prefetch" href="/assets/js/140.baee8264.js"><link rel="prefetch" href="/assets/js/141.cab83fae.js"><link rel="prefetch" href="/assets/js/142.2fccba43.js"><link rel="prefetch" href="/assets/js/143.6523903e.js"><link rel="prefetch" href="/assets/js/144.01c779f4.js"><link rel="prefetch" href="/assets/js/145.2017a624.js"><link rel="prefetch" href="/assets/js/146.d1de5a16.js"><link rel="prefetch" href="/assets/js/147.3b9d5abc.js"><link rel="prefetch" href="/assets/js/148.78a96ee0.js"><link rel="prefetch" href="/assets/js/149.ccd1442e.js"><link rel="prefetch" href="/assets/js/15.5ecc9329.js"><link rel="prefetch" href="/assets/js/150.c65eee6a.js"><link rel="prefetch" href="/assets/js/151.75a1e1d9.js"><link rel="prefetch" href="/assets/js/152.604fb4c8.js"><link rel="prefetch" href="/assets/js/153.93cfc5c0.js"><link rel="prefetch" href="/assets/js/154.d99114ee.js"><link rel="prefetch" href="/assets/js/155.168bfbc5.js"><link rel="prefetch" href="/assets/js/156.8b012700.js"><link rel="prefetch" href="/assets/js/157.3bd2e91d.js"><link rel="prefetch" href="/assets/js/158.041258e2.js"><link rel="prefetch" href="/assets/js/159.95e86c15.js"><link rel="prefetch" href="/assets/js/16.8d31e076.js"><link rel="prefetch" href="/assets/js/160.87143748.js"><link rel="prefetch" href="/assets/js/161.8593a3b4.js"><link rel="prefetch" href="/assets/js/162.b395549c.js"><link rel="prefetch" href="/assets/js/163.a2aa4a1d.js"><link rel="prefetch" href="/assets/js/17.4840b3c9.js"><link rel="prefetch" href="/assets/js/18.cefe558e.js"><link rel="prefetch" href="/assets/js/19.8e262afc.js"><link rel="prefetch" href="/assets/js/20.adeac68c.js"><link rel="prefetch" href="/assets/js/21.77d8c04a.js"><link rel="prefetch" href="/assets/js/22.a9f26a79.js"><link rel="prefetch" href="/assets/js/23.18ea5f72.js"><link rel="prefetch" href="/assets/js/24.cd796014.js"><link rel="prefetch" href="/assets/js/25.fb08cb66.js"><link rel="prefetch" href="/assets/js/26.5c949c09.js"><link rel="prefetch" href="/assets/js/27.2a2d4831.js"><link rel="prefetch" href="/assets/js/28.e0e4c4fb.js"><link rel="prefetch" href="/assets/js/29.b7521a49.js"><link rel="prefetch" href="/assets/js/3.e8b17741.js"><link rel="prefetch" href="/assets/js/30.ab6b748a.js"><link rel="prefetch" href="/assets/js/31.60464bb8.js"><link rel="prefetch" href="/assets/js/32.c95faf86.js"><link rel="prefetch" href="/assets/js/33.7d9d7a3b.js"><link rel="prefetch" href="/assets/js/34.26b92d69.js"><link rel="prefetch" href="/assets/js/35.1eeee0af.js"><link rel="prefetch" href="/assets/js/36.1c7f3048.js"><link rel="prefetch" href="/assets/js/37.9471e7bd.js"><link rel="prefetch" href="/assets/js/38.ec9abedd.js"><link rel="prefetch" href="/assets/js/39.f36e5ab8.js"><link rel="prefetch" href="/assets/js/4.8d532655.js"><link rel="prefetch" href="/assets/js/40.1ea1a444.js"><link rel="prefetch" href="/assets/js/41.8b5b74dd.js"><link rel="prefetch" href="/assets/js/42.04a077c1.js"><link rel="prefetch" href="/assets/js/43.0fe4c703.js"><link rel="prefetch" href="/assets/js/44.b935d6b9.js"><link rel="prefetch" href="/assets/js/45.2b7f5a17.js"><link rel="prefetch" href="/assets/js/46.8bc06ce9.js"><link rel="prefetch" href="/assets/js/47.82a83e28.js"><link rel="prefetch" href="/assets/js/48.6c0f32dd.js"><link rel="prefetch" href="/assets/js/49.029c21dc.js"><link rel="prefetch" href="/assets/js/5.99605394.js"><link rel="prefetch" href="/assets/js/50.e16baf5e.js"><link rel="prefetch" href="/assets/js/51.12ad3e3f.js"><link rel="prefetch" href="/assets/js/52.1ec26d8c.js"><link rel="prefetch" href="/assets/js/53.45cddd06.js"><link rel="prefetch" href="/assets/js/54.2108b43b.js"><link rel="prefetch" href="/assets/js/55.c08c272e.js"><link rel="prefetch" href="/assets/js/56.3bad307d.js"><link rel="prefetch" href="/assets/js/57.867e7ecf.js"><link rel="prefetch" href="/assets/js/58.bf774815.js"><link rel="prefetch" href="/assets/js/59.b8abadae.js"><link rel="prefetch" href="/assets/js/6.290b516c.js"><link rel="prefetch" href="/assets/js/60.61acacb6.js"><link rel="prefetch" href="/assets/js/61.81b74b64.js"><link rel="prefetch" href="/assets/js/62.264c985a.js"><link rel="prefetch" href="/assets/js/63.da901bb6.js"><link rel="prefetch" href="/assets/js/64.dbfc6dec.js"><link rel="prefetch" href="/assets/js/65.5a7bd5da.js"><link rel="prefetch" href="/assets/js/66.d7ebc9ac.js"><link rel="prefetch" href="/assets/js/67.08a9c448.js"><link rel="prefetch" href="/assets/js/68.50931544.js"><link rel="prefetch" href="/assets/js/69.e1c822fc.js"><link rel="prefetch" href="/assets/js/7.bfe2d576.js"><link rel="prefetch" href="/assets/js/70.640a1bf0.js"><link rel="prefetch" href="/assets/js/71.b22c16f7.js"><link rel="prefetch" href="/assets/js/72.bcdbc9a2.js"><link rel="prefetch" href="/assets/js/73.232c9381.js"><link rel="prefetch" href="/assets/js/74.8dd848c9.js"><link rel="prefetch" href="/assets/js/75.5b39d848.js"><link rel="prefetch" href="/assets/js/76.339f1901.js"><link rel="prefetch" href="/assets/js/77.fd812ad4.js"><link rel="prefetch" href="/assets/js/78.59c9582b.js"><link rel="prefetch" href="/assets/js/79.b4588cba.js"><link rel="prefetch" href="/assets/js/80.d20b7f7f.js"><link rel="prefetch" href="/assets/js/81.0de2e426.js"><link rel="prefetch" href="/assets/js/82.8fa26f1a.js"><link rel="prefetch" href="/assets/js/83.8cbb912a.js"><link rel="prefetch" href="/assets/js/84.a1b83b1c.js"><link rel="prefetch" href="/assets/js/85.4237db2a.js"><link rel="prefetch" href="/assets/js/86.4b6842e9.js"><link rel="prefetch" href="/assets/js/87.0290cd66.js"><link rel="prefetch" href="/assets/js/88.ad25d269.js"><link rel="prefetch" href="/assets/js/89.e34aa4b2.js"><link rel="prefetch" href="/assets/js/90.b9ad822e.js"><link rel="prefetch" href="/assets/js/91.4d2cd6d0.js"><link rel="prefetch" href="/assets/js/92.321d2cde.js"><link rel="prefetch" href="/assets/js/93.cec650ad.js"><link rel="prefetch" href="/assets/js/94.732e613a.js"><link rel="prefetch" href="/assets/js/95.b93723c8.js"><link rel="prefetch" href="/assets/js/96.c9532164.js"><link rel="prefetch" href="/assets/js/97.23e04641.js"><link rel="prefetch" href="/assets/js/98.c5b31a70.js"><link rel="prefetch" href="/assets/js/99.d3eae370.js"><link rel="prefetch" href="/assets/js/vendors~docsearch.811c81b7.js">
    <link rel="stylesheet" href="/assets/css/0.styles.c0387eb2.css">
  </head>
  <body>
    <div id="app" data-server-rendered="true"><div class="theme-container no-sidebar"><header class="navbar"><div class="sidebar-button"><svg xmlns="http://www.w3.org/2000/svg" aria-hidden="true" role="img" viewBox="0 0 448 512" class="icon"><path fill="currentColor" d="M436 124H12c-6.627 0-12-5.373-12-12V80c0-6.627 5.373-12 12-12h424c6.627 0 12 5.373 12 12v32c0 6.627-5.373 12-12 12zm0 160H12c-6.627 0-12-5.373-12-12v-32c0-6.627 5.373-12 12-12h424c6.627 0 12 5.373 12 12v32c0 6.627-5.373 12-12 12zm0 160H12c-6.627 0-12-5.373-12-12v-32c0-6.627 5.373-12 12-12h424c6.627 0 12 5.373 12 12v32c0 6.627-5.373 12-12 12z"></path></svg></div> <a href="/zh/" class="home-link router-link-active"><img src="/logo.svg" alt="文档" class="logo"> <span class="site-name can-hide">文档</span></a> <div class="links"><div class="search-box"><input aria-label="Search" autocomplete="off" spellcheck="false" value=""> <!----></div> <nav class="nav-links can-hide"><div class="nav-item"><a href="/zh/user-guide/" class="nav-link">
  用户指南
</a></div><div class="nav-item"><a href="/zh/chain-api/" class="nav-link">
  API接口
</a></div><div class="nav-item"><a href="/zh/dapp-builder/" class="nav-link">
  DApp开发
</a></div><div class="nav-item"><a href="/zh/chain-builder/" class="nav-link">
  构建链
</a></div><div class="nav-item"><a href="/zh/modules/" class="nav-link">
  模块
</a></div><div class="nav-item"><div class="dropdown-wrapper"><button type="button" aria-label="Select language" class="dropdown-title"><span class="title">选择语言</span> <span class="arrow down"></span></button> <button type="button" aria-label="Select language" class="mobile-dropdown-title"><span class="title">选择语言</span> <span class="arrow right"></span></button> <ul class="nav-dropdown" style="display:none;"><li class="dropdown-item"><!----> <a href="/enuls/transactions/" class="nav-link">
  English
</a></li><li class="dropdown-item"><!----> <a href="/zh/enuls/transactions/" aria-current="page" class="nav-link router-link-exact-active router-link-active">
  中文
</a></li></ul></div></div> <a href="https://github.com/nuls-io/devsite/" target="_blank" rel="noopener noreferrer" class="repo-link">
    GitHub
    <span><svg xmlns="http://www.w3.org/2000/svg" aria-hidden="true" focusable="false" x="0px" y="0px" viewBox="0 0 100 100" width="15" height="15" class="icon outbound"><path fill="currentColor" d="M18.8,85.1h56l0,0c2.2,0,4-1.8,4-4v-32h-8v28h-48v-48h28v-8h-32l0,0c-2.2,0-4,1.8-4,4v56C14.8,83.3,16.6,85.1,18.8,85.1z"></path> <polygon fill="currentColor" points="45.7,48.7 51.3,54.3 77.2,28.5 77.2,37.2 85.2,37.2 85.2,14.9 62.8,14.9 62.8,22.9 71.5,22.9"></polygon></svg> <span class="sr-only">(opens new window)</span></span></a></nav></div></header> <div class="sidebar-mask"></div> <aside class="sidebar"><nav class="nav-links"><div class="nav-item"><a href="/zh/user-guide/" class="nav-link">
  用户指南
</a></div><div class="nav-item"><a href="/zh/chain-api/" class="nav-link">
  API接口
</a></div><div class="nav-item"><a href="/zh/dapp-builder/" class="nav-link">
  DApp开发
</a></div><div class="nav-item"><a href="/zh/chain-builder/" class="nav-link">
  构建链
</a></div><div class="nav-item"><a href="/zh/modules/" class="nav-link">
  模块
</a></div><div class="nav-item"><div class="dropdown-wrapper"><button type="button" aria-label="Select language" class="dropdown-title"><span class="title">选择语言</span> <span class="arrow down"></span></button> <button type="button" aria-label="Select language" class="mobile-dropdown-title"><span class="title">选择语言</span> <span class="arrow right"></span></button> <ul class="nav-dropdown" style="display:none;"><li class="dropdown-item"><!----> <a href="/enuls/transactions/" class="nav-link">
  English
</a></li><li class="dropdown-item"><!----> <a href="/zh/enuls/transactions/" aria-current="page" class="nav-link router-link-exact-active router-link-active">
  中文
</a></li></ul></div></div> <a href="https://github.com/nuls-io/devsite/" target="_blank" rel="noopener noreferrer" class="repo-link">
    GitHub
    <span><svg xmlns="http://www.w3.org/2000/svg" aria-hidden="true" focusable="false" x="0px" y="0px" viewBox="0 0 100 100" width="15" height="15" class="icon outbound"><path fill="currentColor" d="M18.8,85.1h56l0,0c2.2,0,4-1.8,4-4v-32h-8v28h-48v-48h28v-8h-32l0,0c-2.2,0-4,1.8-4,4v56C14.8,83.3,16.6,85.1,18.8,85.1z"></path> <polygon fill="currentColor" points="45.7,48.7 51.3,54.3 77.2,28.5 77.2,37.2 85.2,37.2 85.2,14.9 62.8,14.9 62.8,22.9 71.5,22.9"></polygon></svg> <span class="sr-only">(opens new window)</span></span></a></nav>  <!----> </aside> <main class="page"> <div class="theme-default-content content__default"><p>交易是由帐户发出，带密码学签名的指令。 帐户将发起交易以更新ENULS网络的状态。 最简单的交易是将 NULS 从一个账户转到另一个帐户。</p> <h2 id="前提条件"><a href="#前提条件" class="header-anchor">#</a> 前提条件</h2> <p>为了帮助您更好地理解这个页面，我们建议您先阅读<a href="/zh/enuls/accounts/">账户</a>和我们的<a href="/zh/enuls/" class="router-link-active">ENULS简介</a>。</p> <h2 id="什么是交易"><a href="#什么是交易" class="header-anchor">#</a> 什么是交易？</h2> <p>ENULS交易是指由外部持有账户发起的行动，换句话说，是指由人管理而不是智能合约管理的账户。 例如，如果 Bob 向 Alice 发送 1 NULS，则 Bob 的帐户必须减少 1 NULS，而 Alice 的账户必须增加 1 NULS。 交易会造成状态的改变。</p> <p>改变 EVM 状态的交易需要广播到整个网络。 任何节点都可以广播在ENULS虚拟机上执行交易的请求；此后，验证者将执行交易并将由此产生的状态变化传播到网络的其他部分。</p> <p>交易需要付费并且必须包含在一个有效区块中。 为了使本概述更加简洁，我们将另行介绍燃料费和验证。</p> <p>所提交的交易包括下列信息：</p> <ul><li><code>recipient</code> – 接收地址（如果为一个外部持有的帐户，交易将传输值。 如果为合约帐户，交易将执行合约代码）</li> <li><code>signature</code> – 发送者的标识符。 当通过发送者的私钥签名交易来确保发送者已授权此交易时，生成此签名。</li> <li><code>随机数</code> - 一个连续的递增计数器，表示帐户中的交易编号。</li> <li><code>value</code> – 发送人向接收人转移的NULS金额（以NULS的一种面值 WEI 为单位）</li> <li><code>data</code> – 可包括任意数据的可选字段</li> <li><code>gasLimit</code> – 交易可以消耗的最大数量的燃料单位。 燃料单位代表计算步骤</li> <li><code>maxPriorityFeePerGas</code> - 作为验证者小费包含的最大燃料数量</li> <li><code>maxFeePerGas</code> - 愿意为交易支付的最大燃料数量（包括 <code>baseFeePerGas</code> 和 <code>maxPriorityFeePerGas</code>）</li></ul> <p>燃料是指验证者处理交易所需的计算。 用户必须为此计算支付费用。 <code>gasLimit</code> 和 <code>maxPriorityFeePerGas</code> 决定支付给验证者的最高交易费。 <a href="/zh/enuls/gas/">关于燃料的更多信息</a>。</p> <p>交易对象看起来像这样：</p> <div class="language-js extra-class"><pre class="language-js"><code><span class="token punctuation">{</span>
  <span class="token literal-property property">from</span><span class="token operator">:</span> <span class="token string">&quot;0xEA674fdDe714fd979de3EdF0F56AA9716B898ec8&quot;</span><span class="token punctuation">,</span>
  <span class="token literal-property property">to</span><span class="token operator">:</span> <span class="token string">&quot;0xac03bb73b6a9e108530aff4df5077c2b3d481e5a&quot;</span><span class="token punctuation">,</span>
  <span class="token literal-property property">gasLimit</span><span class="token operator">:</span> <span class="token string">&quot;21000&quot;</span><span class="token punctuation">,</span>
  <span class="token literal-property property">maxFeePerGas</span><span class="token operator">:</span> <span class="token string">&quot;300&quot;</span>
  <span class="token literal-property property">maxPriorityFeePerGas</span><span class="token operator">:</span> <span class="token string">&quot;10&quot;</span>
  <span class="token literal-property property">nonce</span><span class="token operator">:</span> <span class="token string">&quot;0&quot;</span><span class="token punctuation">,</span>
  <span class="token literal-property property">value</span><span class="token operator">:</span> <span class="token string">&quot;10000000000&quot;</span><span class="token punctuation">,</span>
<span class="token punctuation">}</span>
</code></pre></div><p>但交易对象需要使用发送者的私钥签名。 这证明交易只可能来自发送者，而不是欺诈。</p> <p>GNULS 这样的ENULS客户端将处理此签名过程。</p> <p>示例 <a href="https://NULS.wiki/json-rpc/API" target="_blank" rel="noopener noreferrer">JSON-RPC<span><svg xmlns="http://www.w3.org/2000/svg" aria-hidden="true" focusable="false" x="0px" y="0px" viewBox="0 0 100 100" width="15" height="15" class="icon outbound"><path fill="currentColor" d="M18.8,85.1h56l0,0c2.2,0,4-1.8,4-4v-32h-8v28h-48v-48h28v-8h-32l0,0c-2.2,0-4,1.8-4,4v56C14.8,83.3,16.6,85.1,18.8,85.1z"></path> <polygon fill="currentColor" points="45.7,48.7 51.3,54.3 77.2,28.5 77.2,37.2 85.2,37.2 85.2,14.9 62.8,14.9 62.8,22.9 71.5,22.9"></polygon></svg> <span class="sr-only">(opens new window)</span></span></a> 调用：</p> <div class="language-json extra-class"><pre class="language-json"><code><span class="token punctuation">{</span>
  <span class="token property">&quot;id&quot;</span><span class="token operator">:</span> <span class="token number">2</span><span class="token punctuation">,</span>
  <span class="token property">&quot;jsonrpc&quot;</span><span class="token operator">:</span> <span class="token string">&quot;2.0&quot;</span><span class="token punctuation">,</span>
  <span class="token property">&quot;mNULSod&quot;</span><span class="token operator">:</span> <span class="token string">&quot;account_signTransaction&quot;</span><span class="token punctuation">,</span>
  <span class="token property">&quot;params&quot;</span><span class="token operator">:</span> <span class="token punctuation">[</span>
    <span class="token punctuation">{</span>
      <span class="token property">&quot;from&quot;</span><span class="token operator">:</span> <span class="token string">&quot;0x1923f626bb8dc025849e00f99c25fe2b2f7fb0db&quot;</span><span class="token punctuation">,</span>
      <span class="token property">&quot;gas&quot;</span><span class="token operator">:</span> <span class="token string">&quot;0x55555&quot;</span><span class="token punctuation">,</span>
      <span class="token property">&quot;maxFeePerGas&quot;</span><span class="token operator">:</span> <span class="token string">&quot;0x1234&quot;</span><span class="token punctuation">,</span>
      <span class="token property">&quot;maxPriorityFeePerGas&quot;</span><span class="token operator">:</span> <span class="token string">&quot;0x1234&quot;</span><span class="token punctuation">,</span>
      <span class="token property">&quot;input&quot;</span><span class="token operator">:</span> <span class="token string">&quot;0xabcd&quot;</span><span class="token punctuation">,</span>
      <span class="token property">&quot;nonce&quot;</span><span class="token operator">:</span> <span class="token string">&quot;0x0&quot;</span><span class="token punctuation">,</span>
      <span class="token property">&quot;to&quot;</span><span class="token operator">:</span> <span class="token string">&quot;0x07a565b7ed7d7a678680a4c162885bedbb695fe0&quot;</span><span class="token punctuation">,</span>
      <span class="token property">&quot;value&quot;</span><span class="token operator">:</span> <span class="token string">&quot;0x1234&quot;</span>
    <span class="token punctuation">}</span>
  <span class="token punctuation">]</span>
<span class="token punctuation">}</span>
</code></pre></div><p>示例响应：</p> <div class="language-json extra-class"><pre class="language-json"><code><span class="token punctuation">{</span>
  <span class="token property">&quot;jsonrpc&quot;</span><span class="token operator">:</span> <span class="token string">&quot;2.0&quot;</span><span class="token punctuation">,</span>
  <span class="token property">&quot;id&quot;</span><span class="token operator">:</span> <span class="token number">2</span><span class="token punctuation">,</span>
  <span class="token property">&quot;result&quot;</span><span class="token operator">:</span> <span class="token punctuation">{</span>
    <span class="token property">&quot;raw&quot;</span><span class="token operator">:</span> <span class="token string">&quot;0xf88380018203339407a565b7ed7d7a678680a4c162885bedbb695fe080a44401a6e4000000000000000000000000000000000000000000000000000000000000001226a0223a7c9bcf5531c99be5ea7082183816eb20cfe0bbc322e97cc5c7f71ab8b20ea02aadee6b34b45bb15bc42d9c09de4a6754e7000908da72d48cc7704971491663&quot;</span><span class="token punctuation">,</span>
    <span class="token property">&quot;tx&quot;</span><span class="token operator">:</span> <span class="token punctuation">{</span>
      <span class="token property">&quot;nonce&quot;</span><span class="token operator">:</span> <span class="token string">&quot;0x0&quot;</span><span class="token punctuation">,</span>
      <span class="token property">&quot;maxFeePerGas&quot;</span><span class="token operator">:</span> <span class="token string">&quot;0x1234&quot;</span><span class="token punctuation">,</span>
      <span class="token property">&quot;maxPriorityFeePerGas&quot;</span><span class="token operator">:</span> <span class="token string">&quot;0x1234&quot;</span><span class="token punctuation">,</span>
      <span class="token property">&quot;gas&quot;</span><span class="token operator">:</span> <span class="token string">&quot;0x55555&quot;</span><span class="token punctuation">,</span>
      <span class="token property">&quot;to&quot;</span><span class="token operator">:</span> <span class="token string">&quot;0x07a565b7ed7d7a678680a4c162885bedbb695fe0&quot;</span><span class="token punctuation">,</span>
      <span class="token property">&quot;value&quot;</span><span class="token operator">:</span> <span class="token string">&quot;0x1234&quot;</span><span class="token punctuation">,</span>
      <span class="token property">&quot;input&quot;</span><span class="token operator">:</span> <span class="token string">&quot;0xabcd&quot;</span><span class="token punctuation">,</span>
      <span class="token property">&quot;v&quot;</span><span class="token operator">:</span> <span class="token string">&quot;0x26&quot;</span><span class="token punctuation">,</span>
      <span class="token property">&quot;r&quot;</span><span class="token operator">:</span> <span class="token string">&quot;0x223a7c9bcf5531c99be5ea7082183816eb20cfe0bbc322e97cc5c7f71ab8b20e&quot;</span><span class="token punctuation">,</span>
      <span class="token property">&quot;s&quot;</span><span class="token operator">:</span> <span class="token string">&quot;0x2aadee6b34b45bb15bc42d9c09de4a6754e7000908da72d48cc7704971491663&quot;</span><span class="token punctuation">,</span>
      <span class="token property">&quot;hash&quot;</span><span class="token operator">:</span> <span class="token string">&quot;0xeba2df809e7a612a0a0d444ccfa5c839624bdc00dd29e3340d46df3870f8a30e&quot;</span>
    <span class="token punctuation">}</span>
  <span class="token punctuation">}</span>
<span class="token punctuation">}</span>
</code></pre></div><ul><li><code>raw</code> 是已签名交易的 RLP（Recursive Length Prefix）编码形式。</li> <li><code>tx</code> 是已签名交易的 JSON 形式。</li></ul> <p>如有签名哈希，可通过加密技术证明交易来自发送者并提交网络。</p> <h3 id="data字段"><a href="#data字段" class="header-anchor">#</a> <code>data</code>字段</h3> <p>绝大多数交易都是从外部所有的帐户访问合约。 大多数合约用 Solidity 语言编写，并根据<a href="/glossary/#abi">应用程序二进制接口 (ABI)</a> 解释其<code>data</code>字段。</p> <p>前四个字节使用函数名称和参数的哈希指定要调用的函数。 有时可以使用<a href="https://www.4byte.directory/signatures/" target="_blank" rel="noopener noreferrer">本数据库<span><svg xmlns="http://www.w3.org/2000/svg" aria-hidden="true" focusable="false" x="0px" y="0px" viewBox="0 0 100 100" width="15" height="15" class="icon outbound"><path fill="currentColor" d="M18.8,85.1h56l0,0c2.2,0,4-1.8,4-4v-32h-8v28h-48v-48h28v-8h-32l0,0c-2.2,0-4,1.8-4,4v56C14.8,83.3,16.6,85.1,18.8,85.1z"></path> <polygon fill="currentColor" points="45.7,48.7 51.3,54.3 77.2,28.5 77.2,37.2 85.2,37.2 85.2,14.9 62.8,14.9 62.8,22.9 71.5,22.9"></polygon></svg> <span class="sr-only">(opens new window)</span></span></a>根据选择器识别函数。</p> <p>调用数据的其余部分是参数，<a href="https://docs.soliditylang.org/en/latest/abi-spec.html#formal-specification-of-the-encoding" target="_blank" rel="noopener noreferrer">按照应用程序二进制接口规范中的规定进行编码<span><svg xmlns="http://www.w3.org/2000/svg" aria-hidden="true" focusable="false" x="0px" y="0px" viewBox="0 0 100 100" width="15" height="15" class="icon outbound"><path fill="currentColor" d="M18.8,85.1h56l0,0c2.2,0,4-1.8,4-4v-32h-8v28h-48v-48h28v-8h-32l0,0c-2.2,0-4,1.8-4,4v56C14.8,83.3,16.6,85.1,18.8,85.1z"></path> <polygon fill="currentColor" points="45.7,48.7 51.3,54.3 77.2,28.5 77.2,37.2 85.2,37.2 85.2,14.9 62.8,14.9 62.8,22.9 71.5,22.9"></polygon></svg> <span class="sr-only">(opens new window)</span></span></a>。</p> <p>例如，我们来看一下<a href="https://NULSerscan.io/tx/0xd0dcbe007569fcfa1902dae0ab8b4e078efe42e231786312289b1eee5590f6a1" target="_blank" rel="noopener noreferrer">这笔交易<span><svg xmlns="http://www.w3.org/2000/svg" aria-hidden="true" focusable="false" x="0px" y="0px" viewBox="0 0 100 100" width="15" height="15" class="icon outbound"><path fill="currentColor" d="M18.8,85.1h56l0,0c2.2,0,4-1.8,4-4v-32h-8v28h-48v-48h28v-8h-32l0,0c-2.2,0-4,1.8-4,4v56C14.8,83.3,16.6,85.1,18.8,85.1z"></path> <polygon fill="currentColor" points="45.7,48.7 51.3,54.3 77.2,28.5 77.2,37.2 85.2,37.2 85.2,14.9 62.8,14.9 62.8,22.9 71.5,22.9"></polygon></svg> <span class="sr-only">(opens new window)</span></span></a>。 使用 **Click to see More（单击查看更多）**查看调用数据。</p> <p>函数选择器是 <code>0xa9059cbb</code>。 有几个<a href="https://www.4byte.directory/signatures/?bytes4_signature=0xa9059cbb" target="_blank" rel="noopener noreferrer">具有此签名的已知函数<span><svg xmlns="http://www.w3.org/2000/svg" aria-hidden="true" focusable="false" x="0px" y="0px" viewBox="0 0 100 100" width="15" height="15" class="icon outbound"><path fill="currentColor" d="M18.8,85.1h56l0,0c2.2,0,4-1.8,4-4v-32h-8v28h-48v-48h28v-8h-32l0,0c-2.2,0-4,1.8-4,4v56C14.8,83.3,16.6,85.1,18.8,85.1z"></path> <polygon fill="currentColor" points="45.7,48.7 51.3,54.3 77.2,28.5 77.2,37.2 85.2,37.2 85.2,14.9 62.8,14.9 62.8,22.9 71.5,22.9"></polygon></svg> <span class="sr-only">(opens new window)</span></span></a>。 本例中<a href="https://NULSerscan.io/address/0xa0b86991c6218b36c1d19d4a2e9eb0ce3606eb48#code" target="_blank" rel="noopener noreferrer">合约源代码<span><svg xmlns="http://www.w3.org/2000/svg" aria-hidden="true" focusable="false" x="0px" y="0px" viewBox="0 0 100 100" width="15" height="15" class="icon outbound"><path fill="currentColor" d="M18.8,85.1h56l0,0c2.2,0,4-1.8,4-4v-32h-8v28h-48v-48h28v-8h-32l0,0c-2.2,0-4,1.8-4,4v56C14.8,83.3,16.6,85.1,18.8,85.1z"></path> <polygon fill="currentColor" points="45.7,48.7 51.3,54.3 77.2,28.5 77.2,37.2 85.2,37.2 85.2,14.9 62.8,14.9 62.8,22.9 71.5,22.9"></polygon></svg> <span class="sr-only">(opens new window)</span></span></a>已经上传到 NULSerscan，所以我们知道该函数是 <code>transfer(address, uint256)</code>。</p> <p>其余数据如下：</p> <div class="language- extra-class"><pre class="language-text"><code>0000000000000000000000004f6742badb049791cd9a37ea913f2bac38d01279
000000000000000000000000000000000000000000000000000000003b0559f4
</code></pre></div><p>根据应用程序二进制接口规范，整型值（例如地址，它是 20 字节整型）在应用程序二进制接口中显示为 32 字节的字，前面用零填充。 所以我们知道 <code>to</code> 地址是 <a href="https://NULSerscan.io/address/0x4f6742badb049791cd9a37ea913f2bac38d01279" target="_blank" rel="noopener noreferrer"><code>4f6742badb049791cd9a37ea913f2bac38d01279</code><span><svg xmlns="http://www.w3.org/2000/svg" aria-hidden="true" focusable="false" x="0px" y="0px" viewBox="0 0 100 100" width="15" height="15" class="icon outbound"><path fill="currentColor" d="M18.8,85.1h56l0,0c2.2,0,4-1.8,4-4v-32h-8v28h-48v-48h28v-8h-32l0,0c-2.2,0-4,1.8-4,4v56C14.8,83.3,16.6,85.1,18.8,85.1z"></path> <polygon fill="currentColor" points="45.7,48.7 51.3,54.3 77.2,28.5 77.2,37.2 85.2,37.2 85.2,14.9 62.8,14.9 62.8,22.9 71.5,22.9"></polygon></svg> <span class="sr-only">(opens new window)</span></span></a>。 <code>value</code> 是 0x3b0559f4 = 990206452。</p> <h2 id="交易类型"><a href="#交易类型" class="header-anchor">#</a> 交易类型</h2> <p>ENULS有几种不同类型的交易：</p> <ul><li>常规交易：从一个帐户到另一个帐户的交易。</li> <li>合约部署交易：没有“to”地址的交易，数据字段用于合约代码。</li> <li>执行合约：与已部署的智能合约进行交互的交易。 在这种情况下，“to”地址是智能合约地址。</li></ul> <h3 id="关于燃料"><a href="#关于燃料" class="header-anchor">#</a> 关于燃料</h3> <p>如上所述，执行交易需要耗费<a href="/zh/enuls/gas/">燃料</a>。 简单的转账交易需要 21000 单位燃料。</p> <p>因此，如果 Bob 要在 <code>baseFeePerGas</code> 为 190 Gwei 且 <code>maxPriorityFeePerGas</code> 为 10 Gwei 时给 Alice 发送一个NULS，Bob 需要支付以下费用：</p> <div class="language- extra-class"><pre class="language-text"><code>(190 + 10) * 21000 = 4,200,000 gwei
--或--
0.0042 NULS
</code></pre></div><p>Bob 的帐户将会扣除 <strong>1.0042 个NULS</strong>（1 个NULS给 Alice，0.0042 个NULS作为燃料费用）</p> <p>Alice 的帐户将会增加 <strong>+1.0 NULS</strong></p> <p>基础费将会燃烧 <strong>-0.00399 NULS</strong></p> <p>验证者获得 <strong>0.000210 个NULS</strong>的小费</p> <p>任何智能合约交互也需要燃料。</p> <p>任何未用于交易的燃料都会退还给用户帐户。</p> <h2 id="交易生命周期"><a href="#交易生命周期" class="header-anchor">#</a> 交易生命周期</h2> <p>交易提交后，就会发生以下情况：</p> <ol><li>一旦您发送交易，加密法生成交易哈希： <code>0x97d99bc7729211111a21b12c933c949d4f31684f1d6954ff477d0477538ff017</code></li> <li>然后将该交易转播到网络，并且与大量其他交易一起包含在一个集合中。</li> <li>验证者必须选择你的交易并将它包含在一个区块中，以便验证交易并认为它“成功”。</li> <li>随着时间的流逝，包含你的交易的区块将升级成“合理”状态，然后变成“最后确定”状态。 通过这些升级，可以进一步确定 你的交易已经成功并将无法更改。 区块一旦“最终确定”，只能通过耗费数十亿美元 的攻击来更改。</li></ol> <h2 id="视频演示"><a href="#视频演示" class="header-anchor">#</a> 视频演示</h2> <p>跟随 Austin 了解交易、燃料和挖矿。</p> <YouTube id="er-0ihqFQB0"></YouTube> <h2 id="typed-transaction-envelope-交易"><a href="#typed-transaction-envelope-交易" class="header-anchor">#</a> Typed Transaction Envelope 交易</h2> <p>ENULS最初有一种交易形式。 每笔交易都包含 Nonce、燃料价格、燃料限制、目的地地址、价值、数据、v、r 和 s。 这些字段采用 RLP 编码，如下所示：</p> <p><code>RLP([nonce, gasPrice, gasLimit, to, value, data, v, r, s])</code></p> <p>ENULS经过演变，已经支持多种类型的交易，从而能够在不影响传统交易形式的情况下实现访问列表和 <a href="https://eips.NULSereum.org/EIPS/eip-1559" target="_blank" rel="noopener noreferrer">EIP-1559<span><svg xmlns="http://www.w3.org/2000/svg" aria-hidden="true" focusable="false" x="0px" y="0px" viewBox="0 0 100 100" width="15" height="15" class="icon outbound"><path fill="currentColor" d="M18.8,85.1h56l0,0c2.2,0,4-1.8,4-4v-32h-8v28h-48v-48h28v-8h-32l0,0c-2.2,0-4,1.8-4,4v56C14.8,83.3,16.6,85.1,18.8,85.1z"></path> <polygon fill="currentColor" points="45.7,48.7 51.3,54.3 77.2,28.5 77.2,37.2 85.2,37.2 85.2,14.9 62.8,14.9 62.8,22.9 71.5,22.9"></polygon></svg> <span class="sr-only">(opens new window)</span></span></a> 等新功能。</p> <p><a href="https://eips.NULSereum.org/EIPS/eip-2718" target="_blank" rel="noopener noreferrer">EIP-2718：类型化交易封套<span><svg xmlns="http://www.w3.org/2000/svg" aria-hidden="true" focusable="false" x="0px" y="0px" viewBox="0 0 100 100" width="15" height="15" class="icon outbound"><path fill="currentColor" d="M18.8,85.1h56l0,0c2.2,0,4-1.8,4-4v-32h-8v28h-48v-48h28v-8h-32l0,0c-2.2,0-4,1.8-4,4v56C14.8,83.3,16.6,85.1,18.8,85.1z"></path> <polygon fill="currentColor" points="45.7,48.7 51.3,54.3 77.2,28.5 77.2,37.2 85.2,37.2 85.2,14.9 62.8,14.9 62.8,22.9 71.5,22.9"></polygon></svg> <span class="sr-only">(opens new window)</span></span></a>定义了交易类型，是未来交易类型的“封套”。</p> <p>EIP-2718 是用于类型化交易的新通用封套。 在新标准中，交易被解释为：</p> <p><code>TransactionType || TransactionPayload</code></p> <p>其中，字段定义如下：</p> <ul><li><code>TransactionType</code> - 一个在 0 到 0x7f 之间的数字，总共为 128 种可能的交易类型。</li> <li><code>TransactionPayload</code> - 由交易类型定义的任意字节数组。</li></ul> <h2 id="相关主题"><a href="#相关主题" class="header-anchor">#</a> 相关主题</h2> <ul><li><a href="/zh/enuls/accounts/">帐户</a></li> <li><a href="/zh/enuls/evm/">ENULS虚拟机 (EVM)</a></li> <li><a href="/zh/enuls/gas/">燃料</a></li></ul></div> <footer class="page-edit"><div class="edit-link"><a href="https://github.com/nuls-io/devsite/edit/master/docs/zh/enuls/transactions/README.md" target="_blank" rel="noopener noreferrer">在 GitHub 上编辑此页</a> <span><svg xmlns="http://www.w3.org/2000/svg" aria-hidden="true" focusable="false" x="0px" y="0px" viewBox="0 0 100 100" width="15" height="15" class="icon outbound"><path fill="currentColor" d="M18.8,85.1h56l0,0c2.2,0,4-1.8,4-4v-32h-8v28h-48v-48h28v-8h-32l0,0c-2.2,0-4,1.8-4,4v56C14.8,83.3,16.6,85.1,18.8,85.1z"></path> <polygon fill="currentColor" points="45.7,48.7 51.3,54.3 77.2,28.5 77.2,37.2 85.2,37.2 85.2,14.9 62.8,14.9 62.8,22.9 71.5,22.9"></polygon></svg> <span class="sr-only">(opens new window)</span></span></div> <!----></footer> <!----> </main></div><div class="global-ui"></div></div>
    <script src="/assets/js/app.0bafe896.js" defer></script><script src="/assets/js/2.6c3a80b8.js" defer></script><script src="/assets/js/1.22a4e5b0.js" defer></script><script src="/assets/js/136.5cc7c540.js" defer></script>
  </body>
</html>
